:020000040801F1
:1000000000C0002021650108736501087F650108B3
:10001000856501088B6501089165010800000000F5
:1000200000000000000000000000000097650108CB
:10003000A365010800000000AF650108BB65010869
:100040007165010871650108716501087165010834
:100050007165010871650108716501087165010824
:100060007165010871650108716501087165010814
:100070007165010871650108716501087165010804
:1000800071650108716501087165010871650108F4
:1000900071650108716501087165010871650108E4
:1000A00071650108716501087165010871650108D4
:1000B0007165010871650108111201087165010877
:1000C00071650108716501087165010871650108B4
:1000D00071650108415E01084D1C01088533010866
:1000E0007165010871650108716501087165010894
:1000F0007165010871650108716501087165010884
:100100007165010871650108716501087165010873
:1001100009440108716501087165010871650108EC
:100120007165010871650108716501087165010853
:1001300000000000000000000000000000000000BF
:1001400000000000000000000000000000000000AF
:10015000000000000000000000000000000000009F
:10016000000000000000000000000000000000008F
:10017000000000000000000000000000000000007F
:10018000000000000000000000000000000000006F
:10019000000000000000000000000000000000005F
:1001A000000000000000000000000000000000004F
:1001B000000000000000000000000000000000003F
:1001C000000000000000000000000000000000002F
:1001D000000000000000000000000000000000001F
:0401E0005FF8E0F1F3
:1001E80010B5054C237833B9044B13B10448AFF369
:1001F80000800123237010BDC0060020000000000D
:100208004CB9010808B5034B1BB103490348AFF3C8
:10021800008008BD00000000C40600204CB9010899
:1002280010F8012B11F8013B012A28BF9A42F7D098
:10023800D01A7047034613F8012B002AFBD1181A6D
:100248000138704781F0004102E000BF83F00043AD
:1002580030B54FEA41044FEA430594EA050F08BF59
:1002680090EA020F1FBF54EA000C55EA020C7FEA1D
:10027800645C7FEA655C00F0E2804FEA5454D4EB9A
:100288005555B8BF6D420CDD2C4480EA020281EA64
:10029800030382EA000083EA010180EA020281EA9C
:1002A8000303362D88BF30BD11F0004F4FEA0131EE
:1002B8004FF4801C4CEA113102D0404261EB4101FD
:1002C80013F0004F4FEA03334CEA133302D0524283
:1002D80063EB430394EA050F00F0A780A4F101043F
:1002E800D5F1200E0DDB02FA0EFC22FA05F2801879
:1002F80041F1000103FA0EF2801843FA05F359415F
:100308000EE0A5F120050EF1200E012A03FA0EFCDD
:1003180028BF4CF0020C43FA05F3C01851EBE37107
:1003280001F0004507D54FF0000EDCF1000C7EEB24
:1003380000006EEB0101B1F5801F1BD3B1F5001F62
:100348000CD349085FEA30004FEA3C0C04F1010481
:100358004FEA445212F5800F80F09A80BCF1004FAA
:1003680008BF5FEA500C50F1000041EB045141EA2C
:10037800050130BD5FEA4C0C404141EB010111F42D
:10038800801FA4F10104E9D191F0000F04BF0146D8
:100398000020B1FA81F308BF2033A3F10B03B3F1B6
:1003A80020020CDA0C3208DD02F1140CC2F10C0246
:1003B80001FA0CF021FA02F10CE002F11402D8BFA4
:1003C800C2F1200C01FA02F120FA0CFCDCBF41EA70
:1003D8000C019040E41AA2BF01EB0451294330BD3F
:1003E8006FEA04041F3C1CDA0C340EDC04F114041C
:1003F800C4F1200220FA04F001FA02F340EA0300F3
:1004080021FA04F345EA030130BDC4F10C04C4F138
:10041800200220FA02F001FA04F340EA0300294618
:1004280030BD21FA04F0294630BD94F0000F83F462
:10043800801306BF81F480110134013D4EE77FEA45
:10044800645C18BF7FEA655C29D094EA050F08BF91
:1004580090EA020F05D054EA000C04BF1946104672
:1004680030BD91EA030F1EBF0021002030BD5FEAB6
:10047800545C05D14000494128BF41F0004130BDDE
:1004880014F580043CBF01F5801130BD01F0004532
:1004980045F0FE4141F470014FF0000030BD7FEAA5
:1004A800645C1ABF194610467FEA655C1CBF0B46A0
:1004B800024650EA013406BF52EA033591EA030FB7
:1004C80041F4002130BD00BF90F0000F04BF0021AF
:1004D800704730B54FF4806404F132044FF00005E2
:1004E8004FF0000150E700BF90F0000F04BF00215B
:1004F800704730B54FF4806404F1320410F00045C1
:1005080048BF40424FF000013EE700BF42004FEABB
:10051800E2014FEA31014FEA02701FBF12F07F4338
:1005280093F07F4F81F06051704792F0000F14BF35
:1005380093F07F4F704730B54FF4607401F0004579
:1005480021F0004120E700BF50EA010208BF7047D0
:1005580030B54FF000050AE050EA010208BF7047C5
:1005680030B511F0004502D5404261EB41014FF42E
:10057800806404F132045FEA915C3FF4DCAE4FF032
:1005880003025FEADC0C18BF03325FEADC0C18BF19
:10059800033202EBDC02C2F1200300FA03FC20FA6A
:1005A80002F001FA03FE40EA0E0021FA02F11444B7
:1005B800C1E600BF70B54FF0FF0C4CF4E06C1CEACC
:1005C80011541DBF1CEA135594EA0C0F95EA0C0F41
:1005D80000F0DEF82C4481EA030621EA4C5123EAB4
:1005E8004C5350EA013518BF52EA033541F48011E3
:1005F80043F4801338D0A0FB02CE4FF00005E1FB96
:1006080002E506F00042E0FB03E54FF00006E1FBDF
:1006180003569CF0000F18BF4EF0010EA4F1FF0422
:10062800B6F5007F64F5407404D25FEA4E0E6D4162
:1006380046EB060642EAC62141EA55514FEAC52073
:1006480040EA5E504FEACE2EB4F1FD0C88BFBCF5EF
:10065800E06F1ED8BEF1004F08BF5FEA500E50F1A0
:10066800000041EB045170BD06F0004646EA010166
:1006780040EA020081EA0301B4EB5C04C2BFD4EB98
:100688000C0541EA045170BD41F480114FF0000E91
:10069800013C00F3AB8014F1360FDEBF002001F0FF
:1006A800004170BDC4F10004203C35DA0C341BDC79
:1006B80004F11404C4F1200500FA05F320FA04F04B
:1006C80001FA05F240EA020001F0004221F000417F
:1006D80010EBD37021FA04F642EB06015EEA430EF2
:1006E80008BF20EAD37070BDC4F10C04C4F1200522
:1006F80000FA04F320FA05F001FA04F240EA0200D5
:1007080001F0004110EBD37041F100015EEA430EA5
:1007180008BF20EAD37070BDC4F1200500FA05F2C5
:100728004EEA020E20FA04F301FA05F243EA020344
:1007380021FA04F001F0004121FA04F220EA020053
:1007480000EBD3705EEA430E08BF20EAD37070BD99
:1007580094F0000F0FD101F00046400041EB010179
:1007680011F4801F08BF013CF7D041EA060195F05B
:10077800000F18BF704703F00046520043EB030315
:1007880013F4801F08BF013DF7D043EA0603704702
:1007980094EA0C0F0CEA135518BF95EA0C0F0CD00D
:1007A80050EA410618BF52EA4306D1D181EA030153
:1007B80001F000414FF0000070BD50EA410606BF4D
:1007C8001046194652EA430619D094EA0C0F02D192
:1007D80050EA013613D195EA0C0F05D152EA0336D7
:1007E8001CBF104619460AD181EA030101F00041F5
:1007F80041F0FE4141F470014FF0000070BD41F03E
:10080800FE4141F4780170BD70B54FF0FF0C4CF417
:10081800E06C1CEA11541DBF1CEA135594EA0C0F36
:1008280095EA0C0F00F0A7F8A4EB050481EA030E83
:1008380052EA03354FEA013100F088804FEA03336A
:100848004FF0805545EA131343EA12634FEA022238
:1008580045EA111545EA10654FEA00260EF00041F9
:100868009D4208BF964244F1FD0404F5407402D24B
:100878005B084FEA3202B61A65EB03055B084FEADC
:1008880032024FF480104FF4002CB6EB020E75EBD9
:10089800030E22BFB61A754640EA0C005B084FEA01
:1008A8003202B6EB020E75EB030E22BFB61A75467E
:1008B80040EA5C005B084FEA3202B6EB020E75EBC9
:1008C800030E22BFB61A754640EA9C005B084FEA41
:1008D8003202B6EB020E75EB030E22BFB61A75464E
:1008E80040EADC0055EA060E18D04FEA051545EA3D
:1008F80016754FEA06164FEAC30343EA52734FEAE6
:10090800C2025FEA1C1CC0D111F4801F0BD141EA5E
:1009180000014FF000004FF0004CB6E711F4801FC3
:1009280004BF01430020B4F1FD0C88BFBCF5E06FA3
:100938003FF6AFAEB5EB030C04BFB6EB020C5FEAB3
:10094800500C50F1000041EB045170BD0EF0004E08
:100958004EEA113114EB5C04C2BFD4EB0C0541EA3A
:10096800045170BD41F480114FF0000E013C90E637
:1009780045EA060E8DE60CEA135594EA0C0F08BFFB
:1009880095EA0C0F3FF43BAF94EA0C0F0AD150EAFA
:1009980001347FF434AF95EA0C0F7FF425AF10468D
:1009A80019462CE795EA0C0F06D152EA03353FF4B5
:1009B800FDAE1046194622E750EA410618BF52EA32
:1009C80043067FF4C5AE50EA41047FF40DAF52EA06
:1009D80043057FF4EBAE12E74FF0FF3C06E000BFA3
:1009E8004FF0010C02E000BF4FF0010C4DF804CDB0
:1009F8004FEA410C7FEA6C5C4FEA430C18BF7FEA70
:100A08006C5C1BD001B050EA410C0CBF52EA430C9D
:100A180091EA030F02BF90EA020F0020704710F11D
:100A2800000F91EA030F58BF994208BF90422CBFAC
:100A3800D8176FEAE37040F0010070474FEA410CA5
:100A48007FEA6C5C02D150EA013C07D14FEA430CC3
:100A58007FEA6C5CD6D152EA033CD3D05DF8040B34
:100A6800704700BF8446104662468C461946634666
:100A780000E000BF01B5FFF7B7FF002848BF10F13D
:100A8800000F01BD4DF808EDFFF7F4FF0CBF012082
:100A980000205DF808FB00BF4DF808EDFFF7EAFFFE
:100AA80034BF012000205DF808FB00BF4DF808EDB9
:100AB800FFF7E0FF94BF012000205DF808FB00BFAE
:100AC8004DF808EDFFF7CEFF94BF012000205DF838
:100AD80008FB00BF4DF808EDFFF7C4FF34BF012045
:100AE80000205DF808FB00BF4FEA410C7FEA6C5C10
:100AF80002D150EA013C0AD14FEA430C7FEA6C5C10
:100B080002D152EA033C02D14FF0000070474FF087
:100B1800010070474FEA410212F5001215D211D5B3
:100B28006FF47873B3EB625212D94FEAC12343F0E2
:100B3800004343EA505311F0004F23FA02F018BF64
:100B4800404270474FF00000704750EA013005D12D
:100B580011F0004008BF6FF0004070474FF00000F0
:100B6800704700BF53B94AB9002908BF00281CBF05
:100B78004FF0FF314FF0FF3000F07AB9ADF1080CBB
:100B88006DE904CE00F006F8DDF804E0DDE90223A3
:100B980004B070472DE9F0478C460E460446089D80
:100BA800002B50D18A4217466CD9B2FA82FEBEF1A8
:100BB800000F0BD0CEF1200C01FA0EF620FA0CFC37
:100BC80002FA0EF74CEA060C00FA0EF43A0CBCFBDB
:100BD800F2F9BBB202FB19CC09FB03FA4FEA14483D
:100BE80048EA0C46B2450AD9F61909F1FF3180F0F6
:100BF8002581B24540F22281A9F102093E44A6EBC3
:100C08000A06B6FBF2F002FB106600FB03F3A4B27F
:100C180044EA0644A34209D9E41900F1FF3280F0FE
:100C28000B81A34240F2088102383C440021E41AB7
:100C380040EA0940002D62D0002324FA0EF42C600B
:100C48006B60BDE8F0878B4207D9002D55D0002195
:100C580085E841000846BDE8F087B3FA83F100292A
:100C680040F08F80B34202D3824200F2FC80841AA3
:100C780066EB03060120B446002D40D085E810102D
:100C8800BDE8F08712B90127B7FBF2F7B7FA87FE7C
:100C9800BEF1000F35D10121F61B4FEA174C1FFAA0
:100CA80087F8B6FBFCF20CFB126608FB02F0230C7B
:100CB80043EA0646B04207D9F61902F1FF3302D2D9
:100CC800B04200F2D2801A46361AB6FBFCF00CFB92
:100CD800106608FB00F8A3B243EA0644A04507D90A
:100CE800E41900F1FF3302D2A04500F2B98018469A
:100CF800A4EB080440EA02409CE729462846BDE8E0
:100D0800F08707FA0EF7CEF1200326FA03F24FEA2E
:100D1800174CB2FBFCF11FFA87F80CFB112206FAFC
:100D28000EF620FA03F301FB08F933431E0C46EADA
:100D38000246B14500FA0EF409D9F61901F1FF325D
:100D480080F08C80B14540F2898002393E44A6EBA0
:100D58000906B6FBFCF00CFB106200FB08F99EB21A
:100D680046EA0246B14507D9F61900F1FF3371D2B8
:100D7800B1456FD902383E44A6EB090640EA014165
:100D88008FE7C1F1200722FA07F88B4048EA0303EE
:100D980026FA07F44FEA134EB4FBFEF91FFA83FC58
:100DA8000EFB19448E4020FA07F809FB0CFA48EAB2
:100DB80006084FEA184646EA0444A24502FA01F238
:100DC80000FA01F608D9E41809F1FF3044D2A24527
:100DD80042D9A9F102091C44A4EB0A04B4FBFEF0B1
:100DE8000EFB104400FB0CFC1FFA88F848EA044488
:100DF800A44507D9E41800F1FF3E29D2A44527D914
:100E080002381C4440EA0940A0FB0289A4EB0C0C00
:100E1800CC45C246CE4615D312D055B1B6EB0A031F
:100E28006CEB0E0606FA07F7CB401F43CE402F6047
:100E38006E600021BDE8F0871046F7E68946DEE6D9
:100E48004645EAD2B8EB020A69EB030E0138E4E73B
:100E58007046D7E718468FE78146BDE7114676E723
:100E680002383C4444E7084606E7023A3E442BE78A
:100E7800704700BF80B582B000AF0121042004F0A4
:100E880021F84FF48073BB801023FB710323BB71DF
:100E98003B1D19460F4803F019FD4FF40063BB8052
:100EA8001023FB710323BB713B1D1946094803F04E
:100EB8000DFD4FF48053BB804823FB713B1D194641
:100EC800044803F003FD00F007F800BF0837BD46EB
:100ED80080BD00BF0008014080B582B000AF00238C
:100EE800BB80324B01221A60012004F037FE2F4BE1
:100EF80000221A60012004F031FE2C4B01221A60F6
:100F0800012004F02BFE2A4B01221A60012004F074
:100F180025FE4FF48051274803F094FD0346002B2B
:100F280002D1BB880133BB800023FB711CE0204B3E
:100F380000221A60012004F011FE1D4B01221A60E4
:100F4800012004F00BFEBB885B00BB804FF480518E
:100F5800184803F077FD0346002B02D1BB88013304
:100F6800BB80FB790133FB71FB790E2BDFD90F4B6B
:100F780001221A600E4B01221A60BB8823F0C003BD
:100F88009B049B0CBB800C4B1B88BA889A4207D0E9
:100F9800BB881946094805F0DBFC074ABB88138063
:100FA800BB8818460837BD4680BD00BFAC0121424A
:100FB800A0012142000801400200002068B9010890
:100FC80080B582B000AF0121142003F07BFF12230B
:100FD800BB801023FB710323BB713B1D19460F48CF
:100FE80003F074FC0823BB801023FB710323BB713F
:100FF8003B1D19460A4803F069FC0A4B00221A6097
:10100800094B00221A60094B00221A60084B012282
:101018001A7000BF0837BD4680BD00BF00080140F8
:1010280000100140840121428C012242900121429A
:10103800DC06002080B584B000AF0346FB710023B6
:10104800FB731CE097F90730002B03DA154B0122DC
:101058001A6002E0134B00221A60134B00221A6038
:10106800012004F07BFD104B01221A60012004F0DE
:1010780075FDFB795B00FB71FB7B0133FB73FB7B2D
:10108800072BDFD9094B00221A60012004F066FD06
:10109800064B01221A60012004F060FD00BF1037E2
:1010A800BD4680BD90012142840121428C0122422B
:1010B80080B582B000AF0346FB710F4B1B78002B45
:1010C80015D00D4B5B785AB2FB79C3F107030121A8
:1010D80001FA03F35BB2DB435BB213405BB2DAB2F3
:1010E800054B5A70044B5B781846FFF7A3FF00BF07
:1010F8000837BD4680BD00BFDC06002080B582B041
:1011080000AF0346FB710E4B1B78002B13D00C4B22
:101118005B785AB2FB79C3F10703012101FA03F3A3
:101128005BB213435BB2DAB2054B5A70044B5B787F
:101138001846FFF77FFF00BF0837BD4680BD00BFD8
:10114800DC06002080B582B000AF0346FB710E4B71
:101158001B78002B13D00C4B5B785AB2FB79C3F188
:101168000703012101FA03F35BB253405BB2DAB221
:10117800054B5A70044B5B781846FFF75BFF00BFBE
:101188000837BD4680BD00BFDC06002080B586B0AC
:1011980000AF03460A46FB801346BB80194803F09C
:1011A80043FF0121042003F0ABFEFB883B82BB8890
:1011B800BB8100237B820023FB8107F10C031946C6
:1011C800104804F047F8012201210E4804F0DDF828
:1011D80001210C4804F025F91E233B7204237B727D
:1011E8000423BB720123FB7207F10803184603F0BE
:1011F800D9F90121034804F0A9F800BF1837BD4602
:1012080080BD00BF0008004080B500AF0121334811
:1012180004F0DEF80346002B00F0E78101212F4897
:1012280004F0FFF82E4B93F8113ADBB2002B19D0DB
:101238002C4B1B889BB201339AB22A4B1A80294B3C
:101248001B889BB2B3F5FA6F0CD1264B00221A808B
:10125800254B264A1188927819809A70244B0122CE
:1012680083F832201E4B93F8103ADBB2002B18D0CB
:101278001B4B002283F8102A1E4B01221A60184BC0
:10128800002283F80F2A184B184A1188927819807F
:101298009A70174B012283F83220114B012283F8F0
:1012A800112A0F4B93F80F3ADBB2002B26D0124BC2
:1012B8001B78DBB20133DAB20F4B1A700E4B1B7876
:1012C800DBB2322B1DD10C4B00221A70094A094B94
:1012D8001B6883F00103136013E000BF000800409F
:1012E8004412002002070020210800207CB90108D0
:1012F800C4070020BC012142F8060020A54B0122AA
:101308001A60A54B93F83330002B31D0A34B1B68E0
:101318000133A24A1360A04B93F831301A46642374
:1013280003FB02F31A469D4B1B689A4220D19B4B44
:1013380000221A6001F040F8994B1B78DBB20133A8
:10134800DAB2974B1A70944B93F83220944B1B786F
:10135800DBB29A420CD1924B00221A70914B924AFE
:101368001188927819809A70904B012283F8322064
:101378008F4B1B78DBB2002B18D08E4B1B889BB28F
:1013880001339AB28B4B1A808A4B1B889BB2B3F5F8
:10139800967F0BD1884805F053FB864B00221A80B4
:1013A800834B00221A70854BFF221A70844B9B7B5B
:1013B800002B0FD0824B1B7D0133DAB2804B1A759C
:1013C8007F4B1B7D142B05D17D4B00221A75012004
:1013D800FFF7B8FE7A4BDB7B002B0FD0784B5B7D99
:1013E8000133DAB2764B5A75754B5B7D142B05D1F8
:1013F800734B00225A750220FFF7A4FE704B1B7C2A
:10140800002B0FD06E4B9B7D0133DAB26C4B9A7573
:101418006B4B9B7D142B05D1694B00229A750320D9
:10142800FFF790FE664B5B7C002B0FD0644BDB7D97
:101438000133DAB2624BDA75614BDB7D142B05D1CF
:101448005F4B0022DA750420FFF77CFE5C4B9B7C27
:10145800002B0FD05A4B1B7E0133DAB2584B1A7649
:10146800574B1B7E142B05D1554B00221A760520AD
:10147800FFF768FE524BDB7C002B0FD0504B5B7E96
:101488000133DAB24E4B5A764D4B5B7E142B05D1A5
:101498004B4B00225A760620FFF754FE484B9B78A8
:1014A800002B0FD0464B1B7A0133DAB2444B1A7229
:1014B800434B1B7A502B05D1414B00221A72012055
:1014C800FFF740FE3E4BDB78002B0FD03C4B5B7A9E
:1014D8000133DAB23A4B5A72394B5B7A502B05D149
:1014E800374B00225A720220FFF72CFE344B1B792F
:1014F800002B0FD0324B9B7A0133DAB2304B9A7201
:101508002F4B9B7A502B05D12D4B00229A7203202A
:10151800FFF718FE2A4B5B79002B0FD0284BDB7A9C
:101528000133DAB2264BDA72254BDB7A502B05D120
:10153800234B0022DA720420FFF704FE204B9B792C
:10154800002B0FD01E4B1B7B0133DAB21C4B1A73D6
:101558001B4B1B7B502B05D1194B00221A730520FE
:10156800FFF7F0FD164BDB79002B0FD0144B5B7B9C
:101578000133DAB2124B5A73114B5B7B502B05D1F6
:101588000F4B00225A730620FFF7DCFD0D4B1B782A
:101598001AE000BFBC01214268200020FC060020A0
:1015A800000700202108002080B90108C407002096
:1015B800F60600200607002084B901080400002070
:1015C800DC06002004070020DBB20133DAB2084B46
:1015D8001A70074B1B78DBB2022B06D1044B002292
:1015E8001A70044B012283F85F2000BF80BD00BF42
:1015F80004070020C407002080B582B000AF012195
:10160800042003F05FFCE023BB801023FB7103235D
:10161800BB713B1D1946054803F058F9E021034802
:1016280003F037FA00BF0837BD4680BD0008014007
:1016380080B584B000AF0346FB71114B01221A60DC
:10164800642004F08BFA0E4B00221A60642004F028
:1016580085FA0023FB730BE00A4B01221A60642011
:1016680004F07CFA074B00221A60FB7B0133FB7302
:10167800FA7BFB799A42EFD300BF1037BD4680BD95
:10168800980121429401214280B483B000AF786070
:101698007B681B889BB218460C37BD4680BC7047D8
:1016A80080B586B000AFF860B9601346FB800023B0
:1016B800FB820EE0FB8A5B00BA6813441B8819465C
:1016C800F86803F089F8FB680233FB60FB8A013392
:1016D800FB82FA8AFB889A42ECD300BF1837BD46D2
:1016E80080BD000080B588B000AFF860B9601346CF
:1016F800FB80FB68B3F1006FC0F09380FB684B4A36
:10170800934200F28E8003F015F8FB6803F17843EA
:101718003B613B69DB0AFB613B69C3F30A035B0876
:101728007B837B8BC3F580633B83FA883B8B9A4230
:1017380001D8FB883B83FB6903F58033DB024FF458
:1017480080623B49184600F075F80023FB820CE0E4
:101758007A8BFB8A1344364A32F813304FF6FF72FD
:10176800934207D1FB8A0133FB82FA8A3B8B9A4268
:10177800EED300E000BFFA8A3B8B9A4226D2FB697F
:1017880003F58033DB02184602F0F4FF0023FB82E6
:101798000DE0FA8A7B8B1344FA8A5200B9680A442E
:1017A8001188234A22F81310FB8A0133FB82FA8A34
:1017B8003B8B9A42EDD3FB6903F58033DB024FF490
:1017C80080621B491846FFF76BFF05E03B8B1A4602
:1017D800B968F868FFF764FFFA883B8B9A421CD017
:1017E800FB690133FB6100237B833B8B5B00BA6899
:1017F8001344BB603B8BFA681344FB60FA883B8B4D
:10180800D31AFB80FB88B3F5806F03D94FF480634C
:101818003B8390E7FB883B838DE700BF02F09CFF8A
:1018280000E000BF2037BD4680BD00BFFFFF0308B2
:10183800F420002090B587B000AFF860B960134677
:10184800FB800023FB820EE0FB8A5B00BA68D41899
:10185800F868FFF719FF03462380FB680233FB6033
:10186800FB8A0133FB82FA8AFB889A42ECD300BFD9
:101878001C37BD4690BD000080B500AF0822034963
:101888000348FFF7D7FF00BF80BD00BF082900202D
:1018980004F8030880B500AF142203490348FFF792
:1018A800C9FF00BF80BD00BFF428002020F803084E
:1018B80080B500AF642203490348FFF7BBFF00BFB0
:1018C80080BD00BF1029002040F8030880B582B011
:1018D80000AF03460A46FB711346BB71FB79064904
:1018E800BA79CA54062204490448FFF7FBFE00BF30
:1018F8000837BD4680BD00BF0C07002000FF030865
:1019080080B582B000AF0346FB7106220549064840
:10191800FFF790FFFB79034AD35C18460837BD46AA
:1019280080BD00BF0C07002000FF030880B582B00F
:1019380000AF0121042003F0C5FA4FF40043BB8037
:101948001023FB710323BB713B1D1946094802F0A4
:10195800BDFF0121012003F0B5FA0121064803F07B
:10196800A7F84FF40041034803F093F800BF083785
:10197800BD4680BD000801400002300080B400AFC1
:10198800BFF34F8F0549054BDB6803F4E062044B56
:101998001343CB60BFF34F8FFEE700BF00ED00E0BD
:1019A8000400FA0580B588B000AF78602A4803F0D3
:1019B80049FD01214FF4003003F0A2FA012104206F
:1019C80003F080FA0423BB830323BB771823FB7738
:1019D80007F11C031946214802F078FF0823BB834E
:1019E8000423FB7707F11C0319461C4802F06EFF1D
:1019F80026233B7201237B720223BB720123FB72F5
:101A080007F10803184602F0CDFD7B68FB60002350
:101A18003B8200237B820023BB8200233B830C2371
:101A2800FB8207F10C0319460B4803F067FD0122FE
:101A380040F22551084803F03AFE01224FF458714C
:101A4800054803F034FE0121034803F011FE00BFEE
:101A58002037BD4680BD00BF00440040000801405B
:101A680080B588B002AF7860674B012283F80F2AEF
:101A7800654B002283F80E2A7868FFF793FF01214F
:101A8800102003F01FFA0323BB811023FB730323E9
:101A9800BB7307F10C0319465C4802F017FF0221DB
:101AA8005A4802F0E8FF4FF47A7004F08BF84FF4CC
:101AB8007A7004F087F84FF47A7004F083F8022102
:101AC800524802F0E6FF0121504802F0D4FF40F2EC
:101AD8004C4004F077F801214C4802F0DAFF4FF44B
:101AE800FA7004F06FF800F0F7FA4FF4FA73009305
:101AF8000023474A4749002001F03EFE4FF4FA739D
:101B080000930023424A4449002001F035FE00209A
:101B180001F0BAFE034683F00103DBB2002BBED10D
:101B280000F0EEFA00BF3D493D4800F091F9034648
:101B380083F00103DBB2002BF5D10023FB75FB7D9D
:101B4800022B01D9FFF71AFF364800F01BFCFB7D7A
:101B58000133FB754FF4FA7004F034F82A4BB3F8EC
:101B6800143AC3F3C033DBB2002BE8D0264AB2F8EC
:101B7800143A6FF3CF33A2F8143A2B492B4800F0EC
:101B88002BF9214BD3F8083A02222949184604F0C8
:101B9800BDFE0346002BD2D1264B3B612649254882
:101BA80005F02AF83861386904F06EFE0346DAB2A7
:101BB800224B83F831202049002005F01DF83861B8
:101BC800386904F061FE0346DAB21C4B83F8322010
:101BD8001A4B93F831301946184B93F832301A469D
:101BE800174804F0B5FE00BF074B012283F8102AFE
:101BF800124B012283F83320034B012283F80E2A6B
:101C080000BF1837BD4680BD4412002000100140B7
:101C180090B9010894B90108A0B901089C200020D6
:101C28007A200020ACB90108B0B901084416002098
:101C3800B4B90108481A0020B8B901086820002082
:101C4800BCB9010880B582B000AF40F225515A48AE
:101C580003F0BFFD0346002B00F09B8040F22551A6
:101C6800554803F010FE544803F079FD0346FB7015
:101C7800524BB3F8143AC3F30E039BB21A4640F220
:101C8800FE339A4214DC4D4BB3F8143AC3F30E03F7
:101C980099B24B1CC3F30E0398B2484AB2F8143AEF
:101CA80060F30E03A2F8143A444AFB7853540CE04C
:101CB800434804F0C5FE4FF4806200213F4804F019
:101CC8003FFE3E4B0022A3F8142AFB785D2B43D13C
:101CD8005B213A4804F023FF0346002B3CD0374BE6
:101CE8007B60364B002283F8132A02E07B680133BD
:101CF8007B607B681B785B2BF8D102E07B68013343
:101D08007B607B681B785B2BF8D02E49786804F0E1
:101D180073FF0246294BC3F80028284BD3F8003834
:101D28002949184602F0CCFA2749284804F010FE41
:101D38004FF480620021214804F002FE1F4AB2F8E5
:101D4800143A6FF30E03A2F8143A1C4AB2F8143A84
:101D580043F40043A2F8143A184B93F80E3ADBB256
:101D6800002B16D0154BB3F8143AC3F3C033DBB2CB
:101D7800002B0ED0114AB2F8143A6FF3CF33A2F801
:101D8800143A1349104800F027F8124B012283F83F
:101D980063200821084803F0F1FC0346002B06D015
:101DA8000821054803F005FD034803F0D8FC00BFEF
:101DB8000837BD4680BD00BF0044004044120020E3
:101DC800CCB90108E0B9010844160020E4B90108BB
:101DD800B0B90108C407002080B584B000AF7860AE
:101DE80039607B68FB600023FB7209E0FB68013304
:101DF800FB60FB681B782C2B02D1FB7A0133FB724A
:101E0800FB7A012BF2D9FB680133FB600F4BFA68B0
:101E180003F6040311464FF40072184604F085FDDA
:101E28003968786804F0E8FEF860084AFB68C2F888
:101E3800043A3968002004F0DFFEF860034AFB68C2
:101E4800C2F8083A00BF1037BD4680BD44120020D2
:101E580080B586B002AF78603960642003F042FE36
:101E6800F8603B687A686749F86804F025FE00BFA7
:101E78004FF4FA7300930023634A6449002001F089
:101E88007BFC034683F00103DBB2002BF0D100BFDB
:101E98004FF4FA73009300235D4A5E49002001F075
:101EA8006BFC034683F00103DBB2002BF0D100BFCB
:101EB8004FF4FA7300930023554A5749002001F064
:101EC8005BFC034683F00103DBB2002BF0D100BFBB
:101ED8004FF4FA73009300234D4A5049002001F053
:101EE8004BFC034683F00103DBB2002BF0D100BFAB
:101EF8004FF4FA7300930023454A4949002001F042
:101F08003BFC034683F00103DBB2002BF0D1454BC9
:101F180093F83030332B10D100BF4FF4E1630093B6
:101F280000233B4A4049002001F026FC034683F089
:101F38000103DBB2002BF0D12AE03A4B93F83030A2
:101F4800362B10D100BF4FF4E16300930023304AD1
:101F58003649002001F010FC034683F00103DBB290
:101F6800002BF0D114E02F4B93F83030392B0FD1E0
:101F780000BF4FF4E16300930023254A2C49002059
:101F880001F0FAFB034683F00103DBB2002BF0D12A
:101F980000BF4FF4FA73009300231D4A254900201F
:101FA80001F0EAFB034683F00103DBB2002BF0D11A
:101FB8004FF4FA7300930023154A1F49002001F0DB
:101FC800DBFB4FF4FA7300930023114A1B490020EE
:101FD80001F0D2FB4FF4E1630093194B194AF968F9
:101FE800002001F0C9FB034683F00103DBB2002B9C
:101FF8007FF43DAFF86803F05FFD01231846103702
:10200800BD4680BDFCB9010818BA010820BA01080C
:1020180090B901082CBA010838BA010844BA010875
:1020280050BA0108C407002060BA010870BA010854
:1020380088BA010898BA0108A4BA0108B0BA010818
:10204800C0BA0108D0BA010880B584B000AF786082
:102058000023FB73C82003F045FDB8607B681C4A69
:10206800C821B86804F0F4FC13E0FB7BBA68134499
:102078001B789BB21946174803F060FB00BF80210C
:10208800144803F07BFB0346002BF8D0FB7B01339D
:10209800FB73FB7BBA6813441B787D2BE5D1FB7B74
:1020A800BA6813441B789BB219460A4803F046FBEA
:1020B80000BF8021074803F061FB0346002BF8D0DE
:1020C800B86803F0F9FC00BF1037BD4680BD00BFFB
:1020D800DCBA01080044004080B500AF4FF47A70C4
:1020E80003F070FD0449054801F0A2FA4FF4FA70B4
:1020F80003F068FD00BF80BDE4BA01080044004059
:1021080080B584B002AF00237B600023FB70634B73
:1021180030221A80624B30221A8000BF4FF4FA73C3
:10212800009300235F4A6049002001F025FB034625
:1021380083F00103DBB2002BF0D15C4B7B60002302
:10214800FB7002E07B6801337B607B681B78392B6E
:10215800F8D87B681B782F2BF4D90BE0FB785A1C36
:10216800FA7019467B681A784C4B0B441A767B68D0
:1021780001337B607B681B78392B03D87B681B781D
:102188002F2BEBD87B681B785A2B03D87B681B78DE
:10219800402BE3D87B681B787A2B03D87B681B78A5
:1021A800602BDBD84249434804F0D2FB00BF4FF410
:1021B8007A7300930023404A4049002001F0DCFA7A
:1021C800034683F00103DBB2002BF0D100BF4FF4CC
:1021D800FA73009300233A4A3A49002001F0CCFAF6
:1021E800034683F00103DBB2002BF0D136492F48B8
:1021F80004F0E6FC0346002B04D0284B332283F876
:1022080030200FE03149294804F0DAFC0346002B5E
:1022180004D0224B362283F8302003E01F4B3922AA
:1022280083F830201D4B93F830301946284804F0C5
:102238008FFB00BF4FF4FA73009300231E4A254911
:10224800002001F099FA034683F00103DBB2002B6A
:10225800F0D1164B7B6000BF7B685A1C7A601B78F4
:102268003A2BF9D17B6801337B601B49786804F00D
:10227800C3FC0346184604F007FB0346DAB2074BD3
:1022880083F83120054B93F831301946134804F090
:102298005FFB00BF0837BD4680BD00BFC4070020F4
:1022A800D0070020E8BA0108F0BA0108441200205B
:1022B800DC070020FCBA010890B9010808BB010836
:1022C80014BB01081CBB010828BB010830BB01086E
:1022D80038BB010848BB0108B0B9010850BB010868
:1022E80080B58EB008AFF860B9607A60FB700E4BAD
:1022F8007B61FFF7C1FAFB783A6B0692FA6A05929E
:10230800BA6A04927A6A03923A6A029201937B68E3
:102318000093BB68054A7969F86804F0CDFB00BFF3
:102328001837BD4680BD00BF5CBB010808290020E6
:1023380080B588B006AF78603960FFF7ABFA0B4B11
:1023480093F830200A4B04930A4B0393074B0293EC
:10235800094B0193094B00931346094A3968786879
:10236800FFF7BEFF00BF0837BD4680BDC407002089
:1023780078BB0108D0070020F42800207CBB0108A6
:10238800DC07002080B5A2B000AF786007F1080331
:1023980080220021184604F0D3FA07F1080379686F
:1023A8001846FFF7C5FF07F10803184600F080F844
:1023B80000BF8837BD4680BD80B582B000AF1A4BDC
:1023C8007B601A4B93F8133ADBB20133DAB2174B3E
:1023D80083F8132A11E07B681B789BB219461448CE
:1023E80003F0ACF900BF8021114803F0C7F9034698
:1023F800002BF8D07B6801337B607B681B787D2BD2
:10240800E9D17B681B789BB21946094803F096F915
:1024180000BF8021064803F0B1F90346002BF8D02D
:1024280000BF0837BD4680BD88BB010844120020A4
:102438000044004080B5C6B002AF0246FB1D1A70CA
:1024480007F10C0318464FF480731A46002104F074
:1024580077FA124BC7F80C31FFF70EFAFB1D1A7802
:102468001346DB0013445B0010330D4A1344053355
:1024780007F10C000B4A019200930B4B0B4AD7F85B
:102488000C1104F019FB07F10C03184600F010F8C2
:1024980000BF07F58877BD4680BD00BFC4BB0108F3
:1024A80040070020ACBB0108D0BB01080829002068
:1024B80080B582B000AF78607968074804F048FAC0
:1024C8000649786801F014FE0448FFF7BDFD00BF17
:1024D8000837BD4680BD00BFD8BB0108441800209E
:1024E80080B582B000AF0121382002F0EBFC4FF438
:1024F8007043BB801023FB710323BB713B1D19463E
:10250800194802F0E3F94FF47E73BB801023FB7186
:102518000323BB713B1D1946144802F0D7F9042365
:10252800BB801023FB710323BB713B1D1946104868
:1025380002F0CCF90121012002F0C4FC01210D4870
:1025480002F0B6FA4FF47E71084802F0A2FA4FF48E
:102558007041054802F09DFA0421054802F099FAF5
:1025680000BF0837BD4680BD00100140000C014087
:10257800001401400002300080B483B000AF03466D
:102588000A46FB711346BB71FB79013B052B57D8F3
:1025980001A252F823F000BFB9250108D12501088E
:1025A800E925010801260108192601083126010834
:1025B800264ABB791360264ABB79002B0CBF01233E
:1025C8000023DBB213603CE0224ABB791360224A45
:1025D800BB79002B0CBF01230023DBB2136030E072
:1025E8001E4ABB7913601E4ABB79002B0CBF01231E
:1025F8000023DBB2136024E01A4ABB7913601A4A3D
:10260800BB79002B0CBF01230023DBB2136018E059
:10261800164ABB791360164ABB79002B0CBF0123FD
:102628000023DBB213600CE0124ABB791360124A34
:10263800BB79002B0CBF01230023DBB2136000E041
:1026480000BF00BF0C37BD4680BC7047BC012242AA
:10265800B8012242B4012242A4812142A081214230
:102668009C8121429881214294812142908121427A
:102678008C81214288812242B001224280B584B0F7
:1026880000AF03460A46FB711346BB71FB79002B6A
:1026980008D0FB79062B05D8BB79002B02D0012086
:1026A800FEF7C6FFFB79013B052B00F2118101A261
:1026B80052F823F0D52601082B27010881270108A5
:1026C800D72701082D28010883280108854B0122F6
:1026D8001A60854B00221A600023FB8105E0642004
:1026E80003F070FAFB890133FB81804B1B7C9BB2A2
:1026F800FA899A42F3D37B4B00221A607A4B012263
:102708001A600023FB8105E0642003F05BFAFB8973
:102718000133FB81754B5B7C9BB2FA899A42F3D3F8
:10272800D7E0734B01221A60724B00221A60002313
:10273800FB8105E0642003F045FAFB890133FB8146
:102748006A4B1B7C9BB2FA899A42F3D3684B0022EE
:102758001A60684B01221A600023FB8105E064209F
:1027680003F030FAFB890133FB81604B5B7C9BB241
:10277800FA899A42F3D3ACE05F4B01221A605F4BAF
:1027880000221A600023FB8105E0642003F01AFA96
:10279800FB890133FB81554B1B7C9BB2FA899A421A
:1027A800F3D3554B00221A60544B01221A600023C0
:1027B800FB8105E0642003F005FAFB890133FB8106
:1027C8004A4B5B7C9BB2FA899A42F3D381E04C4B2B
:1027D80001221A604B4B00221A600023FB8105E09E
:1027E800642003F0EFF9FB890133FB813F4B1B7C2D
:1027F8009BB2FA899A42F3D3414B00221A60414BAB
:1028080001221A600023FB8105E0642003F0DAF955
:10281800FB890133FB81354B5B7C9BB2FA899A4279
:10282800F3D356E0384B01221A60384B00221A6065
:102838000023FB8105E0642003F0C4F9FB89013320
:10284800FB812A4B1B7C9BB2FA899A42F3D32E4B0D
:1028580000221A602D4B01221A600023FB8105E03B
:10286800642003F0AFF9FB890133FB811F4B5B7CCC
:102878009BB2FA899A42F3D32BE0254B01221A60C6
:10288800244B00221A600023FB8105E0642003F03A
:1028980099F9FB890133FB81144B1B7C9BB2FA89A4
:1028A8009A42F3D31A4B00221A601A4B01221A607B
:1028B8000023FB8105E0642003F084F9FB890133E0
:1028C800FB810A4B5B7C9BB2FA899A42F3D300E006
:1028D80000BFFB79184600F06BF800BF1037BD4603
:1028E80080BD00BFBC012242B801224268200020FE
:1028F800B4012242A4812142A08121429C8121422B
:102908009881214294812142908121428C812142E7
:1029180088812242B001224280B584B000AF2348AA
:1029280004F08EF80123FB6008E0FB68DBB20121AC
:102938001846FFF721FEFB680133FB60FB68062B96
:10294800F3DD4FF47A7003F03DF94FF47A7003F039
:1029580039F94FF47A7003F035F90123BB6008E0C8
:10296800BB68DBB200211846FFF706FEBB680133DF
:10297800BB60BB68062BF3DD4FF47A7003F022F9D5
:1029880040F2DC5003F01EF901237B6007E07B680E
:10299800DBB2184600F00CF87B6801337B607B687B
:1029A800062BF4DD00BF1037BD4680BDE0BB010833
:1029B80080B483B000AF0346FB71FB79013B052B64
:1029C80038D801A252F823F0E9290108F7290108AB
:1029D800052A0108132A0108212A01082F2A0108BB
:1029E800174B00221A60174B00221A6023E0164B7F
:1029F80000221A60154B00221A601CE0144B0022BA
:102A08001A60144B00221A6015E0134B00221A605A
:102A1800124B00221A600EE0114B00221A60114B73
:102A280000221A6007E0104B00221A600F4B0022A8
:102A38001A6000E000BF00BF0C37BD4680BC70477D
:102A4800BC012242B8012242B4012242A48121429F
:102A5800A08121429C812142988121429481214276
:102A6800908121428C81214288812242B0012242F8
:102A780080B588B000AF78602A4802F0E3FC0121F5
:102A8800082002F01FFA01214FF4802002F038FAE2
:102A98004FF48063BB830323BB771823FB7707F1CD
:102AA8001C031946204801F011FF4FF40063BB8353
:102AB8000423FB7707F11C0319461B4801F006FFA6
:102AC8007B68FB6000233B8200237B820023BB8260
:102AD80000233B830C23FB8207F10C0319461148A2
:102AE80002F00CFD01210F4802F0C2FD40210D4803
:102AF80002F05FFE012240F225510A4802F0D7FD9C
:102B080027233B7200237B720023BB720123FB72D5
:102B180007F10803184601F045FD00BF2037BD4600
:102B280080BD00BF00480040000C014080B584B063
:102B380000AF78607868FFF79BFF0121182002F04A
:102B4800C1F94FF44043BB811023FB730323BB73CC
:102B580007F10C0319460A4801F0B8FE4FF4E07378
:102B6800BB811023FB730323BB7307F10C031946C6
:102B7800044801F0ABFE00BF1037BD4680BD00BF62
:102B8800000C01400010014080B582B000AF034640
:102B9800FB71FB79013B052B62D801A252F823F0A7
:102BA800C12B0108D32B0108E52B0108F72B0108DD
:102BB8001D2C0108432C010840212C4801F069FF15
:102BC80080212A4801F065FF4BE04021274801F0A9
:102BD80052FF8021254801F05CFF42E04021234854
:102BE80001F057FF8021214801F045FF39E04021DD
:102BF8001E4801F040FF80211C4801F03CFF4FF4C3
:102C080080411B4801F045FF4FF40041184801F08E
:102C180040FF26E04021154801F02DFF8021134890
:102C280001F029FF4FF48041114801F024FF4FF4CF
:102C380000410F4801F02DFF13E040210B4801F03F
:102C48001AFF8021094801F016FF4FF48041084817
:102C580001F01FFF4FF40041054801F00CFF00E0B0
:102C680000BF00BF0837BD4680BD00BF001001404F
:102C7800000C014080B584B000AF0346FB7100230F
:102C8800FB73FB791B4A13449B79002B06D1FB7914
:102C98000133DBB20121184600F024FCFB79013333
:102CA800DBB21846FFF770FFFB7B042B01D900232A
:102CB8001CE0114A104B1B68002B0CBF012300239A
:102CC800DBB21360022002F07DFF0F2000F02CFB26
:102CD800322002F077FFFB7B0133FB73054B5B78F7
:102CE800002BE1D0034B00225A70012318461037FD
:102CF800BD4680BD40070020A001224280B588B0B3
:102D080002AF03463960FB710023BB7500237B7556
:102D180000233B750023FB750023FB740023BB7461
:102D280007F10C0300210A461A800A469A70FEF73A
:102D3800D3F803461A46654B1A80FB791846FFF705
:102D480099FF03463B75614B1B889BB2DAB2FB794E
:102D580042FA03F303F00103002B14BF01230023FD
:102D6800DBB2BB75594B1B889BB21B0A9BB2DAB20C
:102D7800FB7942FA03F303F00103002B14BF01238C
:102D88000023DBB27B75BB7CDB005AB2BB7D9B00AA
:102D98005BB213435AB23B7D5B005BB213435AB23A
:102DA80097F9153013435BB2FB74FB7C484AD35C3C
:102DB800FB75FB7D0B2B02D0FB7D012B0DD1FB7925
:102DC8001846FEF79DFD0346012B06D1FB7D0B2B14
:102DD80001D10A2300E00023FB75FA7DFB79114637
:102DE800184600F081F83B7D002B60D0BB7C002B9F
:102DF8000DD0FA79F97D374B9B781846364B0193FD
:102E080000900B463549386803F056FE58E0FB79C8
:102E180007F10C010A22184603F076FD034619460D
:102E2800386803F08AFE3868FDF704FA03461A4644
:102E38003B6813442A491A460B461B881380FB7DBE
:102E480007F10C010A22184603F05EFD03461946F5
:102E5800386803F055FE3868FDF7ECF903461A4662
:102E68003B6813441E491A460B461B881380194BAE
:102E78001B78184607F10C030A22194603F044FD93
:102E880003461946386803F03BFE3868FDF7D2F967
:102E980003461A463B68134411491A460B461B88D9
:102EA800138008220C49386803F04FFE08E0FA79CD
:102EB800FB7D009313460B4A0421386803F0C8FDD4
:102EC800FB7D18461837BD4680BD00BF00000020B6
:102ED8002CC00108400700204D070020ECBB01086A
:102EE800FCBB010800BC010880B582B000AF0346F6
:102EF8000A46FB711346BB71BB790B2B5CD8BB79B7
:102F08000A2B23D1FB790133DBB21846FEF7D0F840
:102F1800FB792B4A134400229A70FB79284A134400
:102F280000229A73274B1B785E2B07D8FB79013355
:102F3800DBB20121184600F0D5FA3DE0FB790133F8
:102F4800DBB20021184600F0CDFA35E0BB79002B42
:102F58001CD1FB791B4A134400229A71FB79013377
:102F6800DBB20021184600F0BDFAFB790133DBB271
:102F78001846FEF7C3F8FB79114A134400229A70E9
:102F8800FB790F4A134400229A7315E0FB790D4A26
:102F9800134400229A71FB790133DBB200211846F1
:102FA80000F0A0FAFB79064A134400229A70FB79D4
:102FB800034A134401229A7300BF0837BD4680BDF7
:102FC800DC0600204007002080B582B000AF034631
:102FD800FB71FB799BB21946074802F0AFFB00BFB3
:102FE8004021054802F0CAFB0346012BF8D1FB79C2
:102FF80018460837BD4680BD0048004080B485B0FB
:1030080000AF78600B46FB700023BB600023FB73A6
:1030180026E0FB7B7A6813441B781B021A46BB68C0
:103028005340BB600023BB7314E0BB6803F4004348
:10303800002B09D0BB685B00BB60BB6883F481537D
:1030480083F00103BB6002E0BB685B00BB60BB7B35
:103058000133BB73BB7B072BE7D9FB7B0133FB73C6
:10306800FA7BFB789A42D4D3BB6818461437BD461E
:1030780080BC70470FB480B485B000AF0023FB60FC
:103088000023FB7207F11C037B6026E07B681A1D96
:103098007A601B681B021A46FB685340FB600023DA
:1030A800FB7214E0FB6803F40043002B09D0FB68B3
:1030B8005B00FB60FB6883F4815383F00103FB60D2
:1030C80002E0FB685B00FB60FB7A0133FB72FB7A72
:1030D800072BE7D9BB69013BBB61BB69002BD5D185
:1030E800FB6818461437BD4680BC04B07047000022
:1030F80080B584B000AF78600B46FB700B4B0022A4
:103108005A700023FB7309E0FB7B7A6813441B7831
:103118001846FFF759FFFB7B0133FB73FA7BFB78FB
:103128009A42F1D300BF1037BD4680BD1407002076
:1031380080B582B000AF0023FB711F4B1A791F4B7B
:103148001A701D4B5A791D4B5A700023FB710CE005
:10315800FB79FA79013218490A44D178174A13449D
:103168000A469A70FB790133FB71FA79134B1B7885
:10317800043B9A42ECDB114B1B78043BDBB219464B
:103188000F48FFF73BFF0346BB80BA880B4B1B7801
:10319800033B09490B44DB781B02084909780239CB
:1031A80005480144C9780B439A4201D100F00AF856
:1031B80000BF0837BD4680BD140700202C0700203B
:1031C8002E07002080B483B000AF0023FB71534B5F
:1031D8005B78832B5ED0832B04DC812B28D0822B59
:1031E8003DD095E08F2B04D0FF2B1DD08A2B74D0B7
:1031F8008EE04B4B01225A704A4B9A7B484B1A700F
:103208000023FB710CE0FB79FA79033245490A4443
:10321800D178434A13440A465A73FB790133FB7148
:10322800FB79072BEFD973E03D4B01225A706FE011
:103238003B4B01225A700023FB710CE0FB79FA79B1
:10324800033238490A44D178354A13440A465A7336
:10325800FB790133FB71FB79072BEFD958E0304B31
:1032680001225A702F4B9A7B2D4B1A700023FB7149
:103278000CE0FB79FA7903322A490A44D178284AC2
:1032880013440A465A73FB790133FB71FB79072B08
:10329800EFD93DE0224B01225A70224B9B7B1B0247
:1032A8001AB2204BDB7B1BB213431BB29AB21C4BE6
:1032B8009A800023FB710CE0FB79FA7903321949F3
:1032C8000A44D178164A13440A465A73FB790133E3
:1032D800FB71FB79072BEFD91AE0114B01225A70C9
:1032E800104B9A7B0E4B9A700023FB710CE0FB7914
:1032F800FA7903320B490A44D178094A13440A4639
:103308005A73FB790133FB71FB79072BEFD900BFA7
:1033180000BF0C37BD4680BC704700BF2C0700209B
:10332800400700201407002080B584B000AF034692
:10333800FB71A0233B7206237B72FB79BB727B7AFD
:103348001946BB7A1A460220FFF794FE0346FB8112
:10335800FB891B0A9BB2DBB2FB72FB89DBB23B73B6
:10336800A1237B737A7A07F1080311461846FFF701
:10337800BFFE00BF1037BD4680BD000080B582B0DB
:1033880000AF40F22551324802F023FA0346002BE1
:103398004CD040F225512E4802F075FA2C4802F024
:1033A800DEF90346FB712B4B1B78002B3ED1294BD2
:1033B8005B781A46274B1344FA79DA70254B5B7809
:1033C8000133DAB2234B5A70224B5B78022B0AD0B6
:1033D800142B0CD0012B11D1FB79B02B23D01D4B12
:1033E80000225A701FE01B4AFB7993701EE0194BAC
:1033F80000225A70184803F023FB17E0154B5A783F
:10340800144B9B789A4210D1FB79B12B0DD1114BFB
:1034180001221A700F4B00225A70FFF789FE0D4BDC
:1034280000221A7001E000BF00E000BF0821084830
:1034380002F0A4F90346002B06D00821044802F044
:10344800B8F9034802F08BF900BF0837BD4680BDC4
:10345800004800401407002008BC010880B582B06D
:1034680000AF0121182001F02DFD41F20703BB80B8
:103478001023FB710323BB713B1D1946114801F052
:1034880025FA3023BB801023FB710323BB713B1D3E
:1034980019460D4801F01AFA0C4B01221A600C4B20
:1034A80001221A600B4B01221A600B4B01221A6091
:1034B8000A4B01221A600A4B01221A6000BF083722
:1034C800BD4680BD000C0140001001409001224221
:1034D80094012242808121428481214288812142B3
:1034E800B081214280B483B000AF03460A46FB7125
:1034F8001346BB71FB79013B052B27D801A252F873
:1035080023F000BF253501082D35010835350108A0
:103518003D350108453501084D3501080E4ABB798E
:10352800136014E00D4ABB79136010E00C4ABB79B4
:1035380013600CE00B4ABB79136008E00A4ABB79B8
:10354800136004E0094ABB79136000E000BF00BFC4
:103558000C37BD4680BC704790012242940122423C
:10356800808121428481214288812142B081214287
:1035780080B489B000AFF860B9607A600023BB619D
:10358800BB687B617B680A2B04D07B6900221A70B8
:10359800BB6846E0FB68002B09D17B695A1C7A613D
:1035A80030221A707B6900221A70BB6839E0FB6808
:1035B800002B07DA7B695A1C7A612D221A70FB6886
:1035C8005B42FB6042F21073FB6123E0FA68FB691F
:1035D80092FBF3F33B613B69002B02D1BB69002BE3
:1035E80010D07B695A1C7A613A69D2B23032D2B2B1
:1035F8001A703B69FA6902FB03F3FA68D31AFB6095
:103608000123BB61FB69094A82FB03129210DB1795
:10361800D31AFB61FB69002BD8DC7B6900221A7086
:10362800BB6818462437BD4680BC70476766666627
:103638000EB480B58BB000AF786007F13803FB603B
:103648008EE07B6B1B785C2B1DD17B6B01337B631E
:103658007B6B1B786E2B09D0722B0FD10D217868EC
:1036680002F06CF87B6B01337B6371E00A217868A8
:1036780002F064F87B6B01337B6369E07B6B013399
:103688007B6300BF64E07B6B1B78252B57D17B6B7A
:1036980001337B637B6B1B78642B21D0732B49D15F
:1036A800FB681A1DFA601B687B6211E07B6A1B7855
:1036B8009BB21946786802F041F800BF802178680B
:1036C80002F05CF80346002BF8D07B6A01337B627A
:1036D8007B6A1B78002BE9D17B6B01337B6337E076
:1036E800FB681A1DFA601B683B6207F110030A2287
:1036F8001946386AFFF73CFF07F110037B6211E0B7
:103708007B6A1B789BB21946786802F017F800BFED
:103718008021786802F032F80346002BF8D07B6AE3
:1037280001337B627B6A1B78002BE9D17B6B013309
:103738007B630DE07B6B01337B6300BF08E07B6B31
:103748005A1C7A631B789BB21946786801F0F6FF19
:1037580000BF8021786802F011F80346002BF8D0EA
:103768007B6B1B78002B7FF46CAF00BF2C37BD46FA
:10377800BDE8804003B0704780B586B000AFB9603F
:103788007A603B600346FB73FB7B002B04D1384B0C
:103798007B61384B3B6103E0374B7B61374B3B61C7
:1037A8007B69002283F80C2A7A69B2F8143A6FF31D
:1037B8000E03A2F8143ABA6831493869FFF738FF9E
:1037C8007B68002B04D13B68002B01D101234AE020
:1037D8003B6A9BB2184602F0F5F97B69B3F8143AD4
:1037E800C3F30E039BB21A467B69002199547B6987
:1037F8001946244803F0ACF87B68002B19D03B68C5
:10380800002B16D07B697968184603F0D9F903466E
:10381800002B07D17B693968184603F0D1F90346B4
:10382800002B01D0012300E0002303F00103DBB2E9
:1038380019E07B68002B0BD07B697968184603F088
:10384800BFF90346002B14BF01230023DBB20AE0B3
:103858007B693968184603F0B3F90346002B14BF97
:1038680001230023DBB218461837BD4680BD00BFD0
:1038780044120020004400402C080020004C004066
:103888001CBC010824BC010890B587B002AF0346F0
:10389800FB710023FB730A2002F024F9B860FB795E
:1038A800002B09D1BB6820491A460B4603CB106090
:1038B80051601B88138111E0BB681C4A1C461346E3
:1038C80007CB20606160A26008E0F8794FF4FA73D2
:1038D80000930023164A1749FFF74EFFFB7B5A1C3B
:1038E800FA73072BF1D9F8794FF4FA730093002390
:1038F8000F4A1049FFF740FF0346002B08D0B9686C
:103908000D4803F025F8B86802F0D6F8012307E05F
:10391800B9680A4803F01CF8B86802F0CDF800232B
:1039280018461437BD4690BD28BC010834BC0108B0
:1039380040BC010844BC010848BC01085CBC010843
:1039480080B400AFBFF34F8F0549054BDB6803F424
:10395800E062044B1343CB60BFF34F8FFEE700BF19
:1039680000ED00E00400FA0580B586B000AF78608D
:1039780039600023FB75C82002F0B4F83861C8200C
:1039880002F0B0F8F8603968214802F0E1FFF96800
:10399800386800F0ADFBFB681E4AC821386903F09F
:1039A80057F813E0FB7D3A6913441B789BB219461C
:1039B800786801F0C3FE00BF8021786801F0DEFE60
:1039C8000346002BF8D0FB7D0133FB75FB7D3A697C
:1039D80013441B787D2BE5D1FB7D3A6913441B7892
:1039E8009BB21946786801F0A9FE00BF802178686B
:1039F80001F0C4FE0346002BF8D0F86802F05CF82A
:103A0800386902F059F800BF1837BD4680BD00BFBD
:103A18006CBC010874BC010880B588B002AFF860BE
:103A2800B9601346FB71084B7B61FDF725FFB96848
:103A3800FB790093054B7A69F86803F009F800BF31
:103A48001837BD4680BD00BF98BC01080829002072
:103A580080B58AB002AFF860B96011461A460B46C5
:103A6800FB711346BB7107F130033B61FDF704FF9F
:103A7800B968FB79FA6A01920093224B224AF868E6
:103A880002F0E6FF0123FB6117E03B691A1D3A616A
:103A98001B68BB61F868FCF7CDFB03461A46FB6858
:103AA80013441A491A460B461B881380B969F868EB
:103AB80003F026F8FB690133FB61FA69BB6A9A4295
:103AC800E3DB032002F00EF87861BB79104A03218A
:103AD800786902F0BDFFF868FCF7ACFB03461A46AC
:103AE800FB68134409491A460B461B8813807969F9
:103AF800F86803F005F8786901F0DEFF00BF2037A9
:103B0800BD4680BD08290020A0BC0108ACBC010846
:103B1800B0BC010880B58AB002AFF860B9603B60FC
:103B28001346FB7107F12C037B61FDF7A5FEB9680D
:103B3800FB79BA6A01920093134B144AF86802F0B1
:103B480087FF0123FB6117E07B691A1D7A611B68F7
:103B5800BB61F868FCF76EFB03461A46FB68134422
:103B68000B491A460B461B881380B969F86802F09E
:103B7800C7FFFB690133FB61FA693B689A42E3DBE3
:103B880000BF2037BD4680BD08290020A0BC010821
:103B9800ACBC010880B584B000AF0346B9607A6058
:103BA800FB73BB68D3F8083A184602F06DFE03466B
:103BB800213B422B00F2D98001A252F823F000BF2A
:103BC800D53C0108F93C0108733D0108833D010813
:103BD800733D0108833D0108733D0108573D010805
:103BE800733D0108833D0108733D0108733D0108D9
:103BF800733D0108733D0108733D0108733D0108D9
:103C0800733D0108733D0108733D0108733D0108C8
:103C1800733D0108733D0108733D0108733D0108B8
:103C2800733D0108733D0108733D0108513D0108CA
:103C3800733D0108733D0108733D0108733D010898
:103C4800733D0108733D0108733D0108733D010888
:103C5800733D0108733D0108113D0108733D0108DA
:103C6800733D0108733D0108733D0108733D010868
:103C78006B3D0108733D0108733D0108733D010860
:103C8800733D0108733D0108733D0108733D010848
:103C9800733D0108733D0108733D0108733D010838
:103CA800733D0108733D0108EF3C0108453D0108DB
:103CB800733D0108073D0108733D0108733D010884
:103CC800733D0108733D0108653D0108BB6800228A
:103CD80083F8132ABB68002283F8112ABB680122E3
:103CE80083F8122A4CE0BB68002283F8132A47E0C5
:103CF800FB7B7A68B968184600F04AF840E0224B26
:103D0800002283F8132A3BE0BB6803F60403184635
:103D180002F0BAFD0346012B03D10220FDF788FC0F
:103D28002DE0BB6803F60403184602F0ADFD034618
:103D3800022B24D10320FDF77BFC20E0FB7B796874
:103D4800184600F07BF91BE000F0BCF918E0FB7B9B
:103D58007A68B968184600F0ABF811E0FEF7DCFDA8
:103D68000EE0B86800F042F90AE0BB68D3F8083AF8
:103D78001946064802F0ECFD02E000BF00E000BF73
:103D880000BF1037BD4680BD44120020B4BC0108F6
:103D980090B589B002AF0346B9607A60FB736420BE
:103DA80001F0A0FE7861BB6803F6040339491846A0
:103DB80002F022FF3861386902F066FD02467B682E
:103DC8009A633449002002F017FF3861386902F01D
:103DD8005BFD0346DAB27B6883F850202E4B1B78D4
:103DE800DBB21A467B689B6B9A424BD07B689B6B15
:103DF800DAB2294B1A707B689B6BDBB20133DAB2FB
:103E08007B6893F85030DBB219461046FEF736FC53
:103E18007B689C6B7B689B6BD8B27B689A6B1346FC
:103E2800DB0013445B0010331C4A13440533194666
:103E3800FEF764FF03461A467B68234483F8512043
:103E48007B689A6B1346DB0013445B001033134AFC
:103E580013440533124A019200930223232264215A
:103E68007869FFF757FEFB7B002B04D179690D4871
:103E7800FFF77AFD03E079690B48FFF775FD0B4BF7
:103E880001221A70786901F017FE00BF1C37BD4681
:103E980090BD00BFACBC0108040000204007002012
:103EA800D0BC010800440040004C0040F606002049
:103EB80090B58BB004AF0346B9607A60FB73642099
:103EC80001F010FE7861BB6803F604034049184608
:103ED80002F092FE3861386902F0D6FC02467B682F
:103EE8009A633B49002002F087FE38617B683C33C7
:103EF8003969184602F021FE3549002002F07CFE9F
:103F08003861386902F0C0FC0346DAB27B6883F88E
:103F18005020304B1B78DBB21A467B689B6B9A4269
:103F28004ED07B689B6BDAB22A4B1A707B689B6B0E
:103F3800DBB20133DAB27B6893F85030DBB2194652
:103F48001046FEF79BFB7B689C6B7B689B6BD8B22B
:103F58007B689A6B1346DB0013445B0010331E4AE0
:103F6800134405331946FEF7C9FE03461A467B6813
:103F7800234483F851207B689A6B1346DB00134473
:103F88005B001033144A134405337A683C321349F2
:103F98000291019200930323292264217869FFF793
:103FA800B9FDFB7B002B04D179690D48FFF7DCFCD8
:103FB80003E079690B48FFF7D7FC0B4B01221A7015
:103FC800786901F079FD00BF1C37BD4690BD00BF80
:103FD800ACBC01080400002040070020D0BC010848
:103FE80000440040004C0040F606002080B584B034
:103FF80000AF78607B6803F604030F49184602F0A7
:10400800FBFDF860F86802F03FFC0346FB720A49C2
:10401800002002F0F1FDF860F86802F035FC034674
:10402800BB72BA7AFB7A11461846FDF74FFC00BFFF
:104038001037BD4680BD00BFACBC010880B58CB050
:1040480008AF03463960FB71C82001F04BFDF860EA
:104058003B6893F83120134B0693134B0593134B8E
:104068000493134B0393134B0293134B01930623AF
:10407800009313465D22C821F868FFF7E9FCFB7935
:10408800002B04D1F9680D48FFF76EFC03E0F968CE
:104098000B48FFF769FCF86801F00EFD00BF103708
:1040A800BD4680BDAF0700209D0700208B0700207C
:1040B80079070020670700205507002000440040CA
:1040C800004C004080B582B000AF142001F00AFD1A
:1040D80078603D2214217868FFF79EFC786801F02B
:1040E800EBFCFFF72DFC00BF0837BD4680BD000084
:1040F80080B586B000AF7860396000237B6100230B
:104108003B610023FB737868FCF794F80346BB60B7
:10411800ABE07B697A6813441B789B08FB733B69A7
:104128005A1C3A611A463B681344574A1168FA7B8D
:104138000A4412781A707B697A6813441B781B0149
:10414800DBB203F03003FB737B695A1CBB689A42ED
:1041580028DA7B6901337A6813441B781B09DBB2C0
:104168005AB297F90F3013435BB2FB733B695A1C81
:104178003A611A463B681344434A1168FA7B0A4479
:1041880012781A707B6901337A6813441B789B0094
:10419800DBB203F03C03FB737B699A1CBB689A4251
:1041A8004BDA1CE03B695A1C3A611A463B681344D7
:1041B800354A1168FA7B0A4412781A703B695A1C0E
:1041C8003A611A463B6813443D221A703B695A1CEF
:1041D8003A611A463B6813443D221A704AE07B69EB
:1041E80002337A6813441B789B09DBB25AB297F9F9
:1041F8000F3013435BB2FB733B695A1C3A611A4692
:104208003B681344204A1168FA7B0A4412781A70F2
:104218007B6902337A6813441B7803F03F03FB730E
:104228003B695A1C3A611A463B681344164A11689E
:10423800FA7B0A4412781A7014E03B695A1C3A61F6
:104248001A463B681344104A1168FA7B0A441278EC
:104258001A703B695A1C3A611A463B6813443D225E
:104268001A7007E07B6903337B617A69BB689A42FD
:10427800FFF64FAF3B693A68134400221A700023D7
:1042880018461837BD4680BD0800002080B584B0A8
:1042980000AF78600B46FB70FB781946786802F02F
:1042A8003EFCF860FB68002B02D14FF0FF3302E0C0
:1042B800FA687B68D31A18461037BD4680BD0000DF
:1042C80080B588B000AF786039600023FB610023B7
:1042D800BB6107F1080300221A605A609A60DA602D
:1042E8007BE0464B1868FB697A6813441B781946CB
:1042F800FFF7CCFF0346BB60404B1868FB690133EE
:104308007A6813441B781946FFF7C0FF0346FB6021
:10431800BB695A1CBA611A463B681344BA689200D2
:1043280051B2FA68121152B202F0030252B20A43B1
:1043380052B2D2B21A70FB6902337A6813441B78FE
:104348003D2B44D02D4B1868FB6902337A6813441F
:104358001B781946FFF79AFF03463B61BB695A1C55
:10436800BA611A463B681344FA68120151B23A69B5
:10437800921052B202F00F0252B20A4352B2D2B2B3
:104388001A70FB6903337A6813441B783D2B20D0DD
:104398001A4B1868FB6903337A6813441B7819466B
:1043A800FFF774FF03467B61BB695A1CBA611A4662
:1043B8003B6813443A69920151B27A6952B202F0E9
:1043C8003F0252B20A4352B2D2B21A7002E000BFA0
:1043D80000E000BFFB690433FB61FB697A681344A2
:1043E8001B78002B7FF47DAFBB693A681344002229
:1043F8001A70002318462037BD4680BD08000020EB
:1044080080B584B000AF40F22551554801F0E1F97C
:104418000346002B36D040F22551514801F033FABB
:104428004F4801F09CF90346FB724E4BB3F8143A1F
:10443800C3F30E039BB21A4640F2FE339A4214DCD1
:10444800484BB3F8143AC3F30E0399B24B1CC3F3A9
:104458000E0398B2434AB2F8143A60F30E03A2F876
:10446800143A404AFB7A53540CE03F4802F0E8FA09
:104478004FF4806200213B4802F062FA394B002277
:10448800A3F8142A40F22441354801F0A2F9034662
:10449800002B52D0324B1B88314B9B88314B93F801
:1044A8000C3ADBB2002B06D02E4AB2F8143A6FF35E
:1044B8000E03A2F8143A2D492A4802F081FB03465C
:1044C800002B06D02A4802F0BBFA264B012283F8BB
:1044D8000D2A2849234802F073FBF86000237B600B
:1044E800FB68002B29D002E0FB680133FB60FB6806
:1044F8001B782C2BF8D1FB680133FB60F86802F0BD
:10450800C3F9786002E0FB680133FB60FB681B7845
:104518003A2BF8D1FB680133FB607B681A46F968CF
:10452800154802F002FA0F4AB2F8143A43F400436D
:10453800A2F8143A114B00221A800821084801F009
:1045480048F90346002B06D00821054801F031F947
:10455800034801F004F900BF1037BD4680BD00BF15
:10456800004C00402C0800201CBD010834BD010887
:104578003CBD010850BD01082C0C00205C1C00202B
:1045880080B483B000AF7860054A7B6843F0BF63AE
:1045980043F40033D36000BF0C37BD4680BC70477E
:1045A80000ED00E080B487B000AF786000237B6145
:1045B80000233B610F23FB607B68DB78002B3AD03C
:1045C800274BDB68DB431B0A03F007037B617B692E
:1045D800C3F104033B61FA687B6922FA03F3FB60C9
:1045E8007B685B781A463B6902FA03F37B617B6858
:1045F8009B781A46FB6813407A6913437B617B6991
:104608001B017B61174A7B681B787969C9B213441F
:104618000A4683F80023134A7B681B785B09DBB2E0
:1046280018467B681B7803F01F03012101FA03F386
:1046380042F820300FE00B497B681B785B09DBB23E
:1046480018467B681B7803F01F0301229A4000F18B
:10465800200341F8232000BF1C37BD4680BC7047AB
:1046680000ED00E000E100E080B483B000AF7860C6
:10467800396007493B6823F0604323F07F037A6879
:1046880013438B6000BF0C37BD4680BC704700BF2A
:1046980000ED00E080B483B000AF78607B68042B45
:1046A80006D1094A084B1B6843F00403136005E070
:1046B800054A054B1B6823F00403136000BF0C3741
:1046C800BD4680BC704700BF10E000E080B485B0F4
:1046D80000AF78600023FB60094B1B68FB60FB6838
:1046E80003F03803FB60FA687B681343FB60044AF5
:1046F800FB68136000BF1437BD4680BC704700BF1D
:104708000020024080B483B000AF7860084A084BAC
:104718001B6823F0100313600549054B1A687B6872
:1047280013430B6000BF0C37BD4680BC704700BF09
:104738000020024080B400AF044B054A5A60034B86
:10474800044A5A6000BFBD4680BC70470020024042
:1047580023016745AB89EFCD80B400AF044A044B11
:104768001B6943F08003136100BFBD4680BC7047DE
:104778000020024080B584B000AF78600423FB734A
:104788004FF4302000F080F80346FB73FB7B042BCA
:104798001BD1104A0F4B1B6943F0020313610D4AEA
:1047A8007B6853610B4A0B4B1B6943F04003136151
:1047B8004FF4302000F068F80346FB730549054BB9
:1047C8001A6941F6FD7313400B61FB7B18461037DD
:1047D800BD4680BD0020024080B584B000AF78603F
:1047E8000B467B800423FB734FF4005000F04CF819
:1047F8000346FB73FB7B042B15D10D4A0C4B1B693D
:1048080043F0010313617B687A881A804FF40050E3
:1048180000F03AF80346FB730549054B1A6941F65F
:10482800FE7313400B61FB7B18461037BD4680BDF5
:104838000020024080B483B000AF0423FB71114B09
:10484800DB6803F00103012B02D10123FB7113E0A4
:104858000C4BDB6803F00403002B02D00223FB712E
:104868000AE0084BDB6803F01003002B02D0032397
:10487800FB7101E00423FB71FB7918460C37BD4638
:1048880080BC70470020024080B584B000AF7860DB
:104898000423FB73FFF7CEFF0346FB7306E0FFF725
:1048A800C9FF0346FB737B68013B7B60FB7B012BE5
:1048B80002D17B68002BF2D17B68002B01D1052344
:1048C800FB73FB7B18461037BD4680BD80B489B0AA
:1048D80000AF786039600023FB6100233B6100234F
:1048E800BB610023FB6000237B610023BB603B6846
:1048F800DB7803F00F03FB613B68DB7803F0100300
:10490800002B05D03B689B781A46FB691343FB6173
:104918003B681B88DBB2002B44D07B681B687B613B
:104928000023BB6138E00122BB6902FA03F3FB6094
:104938003B681B881A46FB6813403B613A69FB6871
:104948009A4226D1BB699B00FB600F22FB6802FAE2
:1049580003F3BB60BB68DB437A6913407B61FA6988
:10496800FB6802FA03F37A6913437B613B68DB78DF
:10497800282B05D10122BB699A407B685A6108E05F
:104988003B68DB78482B04D10122BB699A407B68DD
:104998001A61BB690133BB61BB69072BC3D97B684B
:1049A8007A691A603B681B88FF2B46D97B685B686D
:1049B8007B610023BB613AE0BB690833012202FA3C
:1049C80003F3FB603B681B881A46FB6813403B6196
:1049D8003A69FB689A4227D1BB699B00FB600F22AA
:1049E800FB6802FA03F3BB60BB68DB437A691340D8
:1049F8007B61FA69FB6802FA03F37A6913437B6106
:104A08003B68DB78282B05D1BB69083301229A4023
:104A18007B685A613B68DB78482B05D1BB69083352
:104A280001229A407B681A61BB690133BB61BB698B
:104A3800072BC1D97B687A695A6000BF2437BD4605
:104A480080BC704780B485B000AF78600B467B802F
:104A58000023FB737B689A687B881340002B02D085
:104A68000123FB7301E00023FB73FB7B184614371B
:104A7800BD4680BC704780B483B000AF78600B46F9
:104A88007B807A887B681A6100BF0C37BD4680BC82
:104A9800704780B483B000AF78600B467B807A881B
:104AA8007B685A6100BF0C37BD4680BC7047000068
:104AB80080B487B000AF78600B46FB7000233B6181
:104AC8000023FB6000237B610023BB607B68002B15
:104AD80003DA2E4BDB697B6102E02C4B5B687B6160
:104AE8007B681B0C03F00F03BB607B689BB23B61C8
:104AF8007B6803F44013B3F5401F0AD17B6923F0A8
:104B080070637B61214A214B5B6823F070635360BB
:104B180021E07B6803F48013002B0ED00322BB68CE
:104B280002FA03F3FB60FB68DB437A6913407B619D
:104B38007B6943F070637B610DE07B685B0D1B0153
:104B48003A6902FA03F3DB437A6913407B617B69B4
:104B580043F070637B61FB78002B08D07B685B0DAA
:104B68001B013A6902FA03F37A6913437B617B6894
:104B7800002B03DA054A7B69D36102E0034A7B69AB
:104B8800536000BF1C37BD4680BC70470000014021
:104B980080B400AF134A134B1B6843F00103136042
:104BA8001049104B5A68104B13404B600D4A0D4B7F
:104BB8001B6823F0847323F480331360094A094B7C
:104BC8001B6823F480231360064A064B5B6823F4B2
:104BD800FE035360034B4FF41F029A6000BFBD46AB
:104BE80080BC7047001002400000FFF880B483B01A
:104BF80000AF0346FB71044AFB79136000BF0C3712
:104C0800BD4680BC704700BF0000424280B485B0FA
:104C180000AF786039600023FB600A4B5B68FB607B
:104C2800FB6823F47C13FB607A683B681343FA68DB
:104C38001343FB60034AFB68536000BF1437BD464B
:104C480080BC70470010024080B483B000AF0346B8
:104C5800FB71044AFB79136000BF0C37BD4680BC6A
:104C6800704700BF6000424280B485B000AF7860F2
:104C78000023FB60094B5B68FB60FB6823F00303C0
:104C8800FB60FA687B681343FB60044AFB68536067
:104C980000BF1437BD4680BC704700BF00100240FB
:104CA80080B400AF044B5B68DBB203F00C03DBB2EB
:104CB8001846BD4680BC70470010024080B485B0DD
:104CC80000AF78600023FB60094B5B68FB60FB6802
:104CD80023F0F003FB60FA687B681343FB60044A27
:104CE800FB68536000BF1437BD4680BC704700BFE7
:104CF8000010024080B485B000AF78600023FB60EC
:104D0800094B5B68FB60FB6823F4E063FB60FA68AF
:104D18007B681343FB60044AFB68536000BF143789
:104D2800BD4680BC704700BF0010024080B485B00B
:104D380000AF78600023FB60094B5B68FB60FB6891
:104D480023F46053FB607B68DB00FA681343FB6065
:104D5800034AFB68536000BF1437BD4680BC7047E8
:104D68000010024080B487B000AF786000237B61F8
:104D780000233B610023FB600023BB604C4B5B6856
:104D880003F00C037B617B69042B07D0082B09D047
:104D9800002B33D17B68474A1A6033E07B68454A69
:104DA8001A602FE0424B5B6803F470133B61404B81
:104DB8005B6803F48033FB603B699B0C02333B6107
:104DC800FB68002B06D13B693B4A02FB03F27B6878
:104DD8001A6017E0364B5B6803F40033002B06D0EB
:104DE8003B69354A02FB03F27B681A600AE03B69BB
:104DF800304A02FB03F27B681A6003E07B682D4AA5
:104E08001A6000BF2A4B5B6803F0F0037B617B6983
:104E18001B097B61294A7B6913441B78DBB2BB60A1
:104E28007B681A68BB68DA407B685A60204B5B680D
:104E380003F4E0637B617B691B0A7B611F4A7B6922
:104E480013441B78DBB2BB607B685A68BB68DA40E6
:104E58007B689A60164B5B6803F460537B617B69DF
:104E6800DB0A7B61154A7B6913441B78DBB2BB60A4
:104E78007B685A68BB68DA407B68DA600C4B5B6811
:104E880003F440437B617B699B0B7B610C4A7B6924
:104E980013441B78DBB2BB607B68DA68BB68B2FB83
:104EA800F3F27B681A6100BF1C37BD4680BC7047AF
:104EB8000010024000127A0000093D000C0000209A
:104EC8001C00002080B483B000AF78600B46FB70F4
:104ED800FB78002B06D00949084B9A697B68134375
:104EE8008B6106E00549054B9A697B68DB431340F3
:104EF8008B6100BF0C37BD4680BC70470010024074
:104F080080B483B000AF78600B46FB70FB78002B51
:104F180006D00949084BDA697B681343CB6106E080
:104F28000549054BDA697B68DB431340CB6100BF59
:104F38000C37BD4680BC70470010024080B483B077
:104F480000AF78600B46FB70FB78002B06D0094950
:104F5800084BDA687B681343CB6006E00549054BCC
:104F6800DA687B68DB431340CB6000BF0C37BD4673
:104F780080BC70470010024080B483B000AF7860F6
:104F88000B46FB70FB78002B06D00949084B1A69C1
:104F98007B6813430B6106E00549054B1A697B687A
:104FA800DB4313400B6100BF0C37BD4680BC704724
:104FB8000010024080B487B000AF0346FB710023A5
:104FC800FB6000237B610023FB74FB795B09DBB288
:104FD800FB60FB68012B03D1124B1B687B6109E066
:104FE800FB68022B03D10F4B1B6A7B6102E00D4B60
:104FF8005B6A7B61FB7903F01F03FB607A69FB68DE
:1050080022FA03F303F00103002B02D00123FB74FF
:1050180001E00023FB74FB7C18461C37BD4680BCAE
:10502800704700BF0010024080B582B000AF7860C2
:105038007B68784A93420AD101214FF40060FFF758
:105048007DFF00214FF40060FFF778FFDEE07B680A
:10505800B3F1804F08D101210120FFF78DFF002116
:105068000120FFF789FFD1E07B686B4A934208D1A2
:1050780001210220FFF780FF00210220FFF77CFFBB
:10508800C4E07B68654A934208D101210420FFF7F8
:1050980073FF00210420FFF76FFFB7E07B68604AC9
:1050A800934208D101210820FFF766FF002108205C
:1050B800FFF762FFAAE07B685A4A934208D10121B0
:1050C8001020FFF759FF00211020FFF755FF9DE042
:1050D8007B68554A934208D101212020FFF74CFFF5
:1050E80000212020FFF748FF90E07B684F4A934259
:1050F8000AD101214FF40050FFF720FF00214FF49F
:105108000050FFF71BFF81E07B68494A93420AD1B0
:1051180001214FF40020FFF711FF00214FF4002078
:10512800FFF70CFF72E07B68424A93420AD10121E3
:105138004FF48010FFF702FF00214FF48010FFF7B3
:10514800FDFE63E07B683C4A93420AD101214FF49B
:105158000010FFF7F3FE00214FF40010FFF7EEFEFA
:1051680054E07B68354A934208D101214020FFF77B
:1051780003FF00214020FFF7FFFE47E07B68304A2D
:10518800934208D101218020FFF7F6FE00218020FC
:10519800FFF7F2FE3AE07B682A4A93420AD10121DE
:1051A8004FF48070FFF7E8FE00214FF48070FFF79E
:1051B800E3FE2BE07B68244A93420AD101214FF495
:1051C8008030FFF7BBFE00214FF48030FFF7B6FEBA
:1051D8001CE07B681D4A93420AD101214FF400303C
:1051E800FFF7ACFE00214FF40030FFF7A7FE0DE0FB
:1051F8007B68174A934209D101214FF48020FFF7B9
:105208009DFE00214FF48020FFF798FE00BF08376D
:10521800BD4680BD002C014000040040000800404D
:10522800000C004000100040001400400034014011
:10523800004C01400050014000540140001800405B
:10524800001C004000200040004001400044014094
:105258000048014080B485B000AF78603960002311
:10526800FB817B681B88FB817B682E4A934213D0A5
:105278007B682D4A93420FD07B68B3F1804F0BD0E7
:105288007B682A4A934207D07B68294A934203D015
:105298007B68284A934208D1FB8923F07003FB817D
:1052A8003B685A88FB891343FB817B68224A9342F7
:1052B8000CD07B68214A934208D0FB8923F44073C1
:1052C800FB813B68DA88FB891343FB817B68FA8999
:1052D8001A803B689A887B689A853B681A887B683D
:1052E8001A857B680F4A93420FD07B680E4A934217
:1052F8000BD07B68124A934207D07B68114A9342CD
:1053080003D07B68104A934204D13B681B7A9AB257
:105318007B681A867B6801229A8200BF1437BD46D3
:1053280080BC7047002C014000340140000400405C
:1053380000080040000C004000100040001400402D
:1053480000400140004401400048014080B483B05F
:1053580000AF78600B46FB70FB78002B08D07B68A9
:105368001B889BB243F001039AB27B681A8007E05E
:105378007B681B889BB223F001039AB27B681A8072
:1053880000BF0C37BD4680BC704780B483B000AF07
:1053980078600B467B8013467B707B78002B08D0A7
:1053A8007B689B899AB27B8813439AB27B689A81FF
:1053B80009E07B689B899AB27B88DB439BB21340E8
:1053C8009AB27B689A8100BF0C37BD4680BC704793
:1053D80080B485B000AF78600B467B800023FB73F8
:1053E8000023BB8100237B817B681B8A9AB27B8860
:1053F8001340BB817B689B899AB27B8813407B8171
:10540800BB89002B05D07B89002B02D00123FB73BD
:1054180001E00023FB73FB7B18461437BD4680BCB4
:10542800704780B483B000AF78600B467B807B8880
:10543800DB439AB27B681A8200BF0C37BD4680BC3A
:105448007047000080B582B000AF78607B68264A5C
:1054580093420AD101214FF48040FFF76FFD0021EC
:105468004FF48040FFF76AFD3AE07B681F4A934299
:105478000AD101214FF40030FFF77EFD00214FF4DF
:105488000030FFF779FD2BE07B68194A93420AD177
:1054980001214FF48020FFF76FFD00214FF4802099
:1054A800FFF76AFD1CE07B68124A93420AD101218A
:1054B8004FF40020FFF760FD00214FF40020FFF7B4
:1054C8005BFD0DE07B680C4A934209D101214FF442
:1054D8008010FFF751FD00214FF48010FFF74CFDBD
:1054E80000BF0837BD4680BD003801400044004079
:1054F80000480040004C00400050004080B58CB08F
:1055080000AF786039600023FB620023BB62002390
:105518007B6200233B620023FB617B68FB617B6845
:105528001B8A9BB2FB62FA6A4CF6FF731340FB625C
:105538003B68DB881A46FB6A1343FB62FB6A9AB234
:105548007B681A827B689B899BB2FB62FA6A4EF67B
:10555800F3131340FB623B689A883B681B8913432B
:105568009AB23B685B8913439BB21A46FB6A1343A2
:10557800FB62FB6A9AB27B689A817B689B8A9BB2C2
:10558800FB62FA6A4FF6FF431340FB623B689B8954
:105598001A46FB6A1343FB62FB6A9AB27B689A82DB
:1055A80007F108031846FFF7DDFBFB692E4A934213
:1055B80002D17B69BB6201E03B69BB627B689B8966
:1055C8009BB21BB2002B0CDABA6A13469B00134439
:1055D8009A001A443B681B685B00B2FBF3F37B62DA
:1055E8000BE0BA6A13469B0013449A001A443B68BE
:1055F8001B689B00B2FBF3F37B627B6A1B4AA2FB2E
:1056080003235B091B01FB62FB6A1B09642202FB83
:1056180003F37A6AD31A3B627B689B899BB21BB2FD
:10562800002B0CDA3B6ADB003233104AA2FB03235F
:105638005B0903F00703FA6A1343FB620BE03B6A5A
:105648001B013233094AA2FB03235B0903F00F0352
:10565800FA6A1343FB62FB6A9AB27B681A8100BF3D
:105668003037BD4680BD00BF003801401F85EB5173
:1056780080B483B000AF78600B46FB70FB78002BDA
:1056880008D07B689B899BB243F400539AB27B682D
:105698009A8107E07B689B899BB223F400539AB2F6
:1056A8007B689A8100BF0C37BD4680BC704780B4C8
:1056B80087B000AF78600B467B8013467B70002371
:1056C8003B610023FB600023BB6000237B617B6898
:1056D8007B617B88DBB25B09DBB23B617B8803F0D3
:1056E8001F03FB600122FB6802FA03F3BB603B69FE
:1056F800012B03D17B690C337B6109E03B69022BE9
:1057080003D17B6910337B6102E07B6914337B61D1
:105718007B78002B06D07B697A691168BA680A43DE
:105728001A6006E07B697A691168BA68D2430A4050
:105738001A6000BF1C37BD4680BC704780B483B078
:1057480000AF78600B467B807B88C3F308039AB26E
:105758007B689A8000BF0C37BD4680BC704780B418
:1057680083B000AF78607B689B889BB2C3F3080363
:105778009BB218460C37BD4680BC704780B485B0D4
:1057880000AF78600B467B800023FB737B681B8827
:105798009AB27B8813409BB2002B02D00123FB7383
:1057A80001E00023FB73FB7B18461437BD4680BC21
:1057B800704780B483B000AF78600B467B807B88ED
:1057C800DB439AB27B681A8000BF0C37BD4680BCA9
:1057D800704780B487B000AF78600B467B800023A9
:1057E800FB6000237B610023BB600023FB747B8884
:1057F800DBB25B09DBB2BB607B8803F01F037B6114
:1058080001227B6902FA03F37B61BB68012B07D194
:105818007B689B899BB21A467B6913407B6111E0C8
:10582800BB68022B07D17B681B8A9BB21A467B692F
:1058380013407B6106E07B689B8A9BB21A467B69B2
:1058480013407B617B881B0A9BB2FB600122FB68CB
:1058580002FA03F3FB607B681B889BB21A46FB685D
:105868001340FB607B69002B05D0FB68002B02D03E
:105878000123FB7401E00023FB74FB7C18461C37F2
:10588800BD4680BC704780B485B000AF78600B46D9
:105898007B800023FB810023BB817B881B0AFB8163
:1058A800FB89012202FA03F3BB81BB89DB439AB26D
:1058B8007B681A8000BF1437BD4680BC704780B42F
:1058C80087B000AFF8600B467A60FB72FB687B61BB
:1058D80004E07B695A1C7A61FA7A1A707B685A1E4E
:1058E8007A60002BF5D100BF1C37BD4680BC7047DD
:1058F80080B500AF0A4BD8684FF480635B001A4646
:105908000021FFF7DCFF064B9B684FF400420021A3
:105918001846FFF7D4FF024B01221A7400BF80BD5E
:105928002000002080B483B000AF00237B600023F8
:105938003B600DE0104BDA683B685B0013441B8842
:10594800002B02D07B6801337B603B6801333B60EE
:105958004FF480623B689342ECD37B68642202FB7D
:1059680003F34FF48062B3FBF2F3DBB218460C3753
:10597800BD4680BC704700BF2000002080B586B0BF
:1059880000AF786000237B610023FB602C4B1B7CFD
:10599800002B02D12A4B1B6898477B68002B02D149
:1059A8004FF0FF3348E020227B68B3FBF2F33B6102
:1059B80020227B68B3FBF2F102FB01F29B1A002B59
:1059C80002D03B6901333B614FF48063013B7B614B
:1059D8002DE01B4BDA687B695B0013441B88002BA6
:1059E80003D1FB680133FB6001E00023FB60FA6828
:1059F8003B699A4218D10023BB600CE0104BDA686F
:105A08007969BB680B445B0013443A6992B21A8007
:105A1800BB680133BB60BA683B699A42EED37B69C5
:105A2800202202FB03F307E07B69013B7B617B6972
:105A3800002BCEDA4FF0FF3318461837BD4680BD2D
:105A48002000002080B586B000AF7860194B1B7C21
:105A5800002B04D1174B1B689847012326E04FF40D
:105A680000427B68934220D220227B68B3FBF2F38A
:105A78003B61104BDA683B695B0013441B88FB6091
:105A880000237B610BE00B4BDA6839697B690B44B7
:105A98005B00134400221A807B6901337B617A69B9
:105AA800FB689A42EFDB002300E002231846183710
:105AB800BD4680BD2000002080B584B000AF78606E
:105AC8007B68002B08D07B68054A92689B1AFB60AC
