:020000040800F2
:1000000000C0002069650008BB650008C7650008DE
:10001000CD650008D3650008D96500080000000020
:10002000000000000000000000000000DF65000884
:10003000EB65000800000000F76500080366000893
:10004000B9650008B9650008B9650008B965000818
:10005000B9650008B9650008B9650008B965000808
:10006000B9650008B9650008B9650008B9650008F8
:10007000B9650008B9650008B9650008B9650008E8
:10008000B9650008B9650008B9650008B9650008D8
:10009000B9650008B9650008B9650008B9650008C8
:1000A000B9650008B9650008B9650008B9650008B8
:1000B00095110008C511000835140008B96500083D
:1000C000B9650008B9650008B9650008B965000898
:1000D000B9650008C15E0008A91C0008B531000818
:1000E000B9650008B9650008B9650008B965000878
:1000F000B9650008B9650008B9650008B965000868
:10010000B9650008B9650008E9110008B96500087B
:10011000C5440008B9650008B9650008B96500085C
:10012000B9650008B9650008B9650008B965000837
:1001300000000000000000000000000000000000BF
:1001400000000000000000000000000000000000AF
:10015000000000000000000000000000000000009F
:10016000000000000000000000000000000000008F
:10017000000000000000000000000000000000007F
:10018000000000000000000000000000000000006F
:10019000000000000000000000000000000000005F
:1001A000000000000000000000000000000000004F
:1001B000000000000000000000000000000000003F
:1001C000000000000000000000000000000000002F
:1001D000000000000000000000000000000000001F
:0401E0005FF8E0F1F3
:1001E80010B5054C237833B9044B13B10448AFF369
:1001F80000800123237010BDC0060020000000000D
:100208007CB9000808B5034B1BB103490348AFF399
:10021800008008BD00000000C40600207CB900086A
:1002280010F8012B11F8013B012A28BF9A42F7D098
:10023800D01A7047034613F8012B002AFBD1181A6D
:100248000138704781F0004102E000BF83F00043AD
:1002580030B54FEA41044FEA430594EA050F08BF59
:1002680090EA020F1FBF54EA000C55EA020C7FEA1D
:10027800645C7FEA655C00F0E2804FEA5454D4EB9A
:100288005555B8BF6D420CDD2C4480EA020281EA64
:10029800030382EA000083EA010180EA020281EA9C
:1002A8000303362D88BF30BD11F0004F4FEA0131EE
:1002B8004FF4801C4CEA113102D0404261EB4101FD
:1002C80013F0004F4FEA03334CEA133302D0524283
:1002D80063EB430394EA050F00F0A780A4F101043F
:1002E800D5F1200E0DDB02FA0EFC22FA05F2801879
:1002F80041F1000103FA0EF2801843FA05F359415F
:100308000EE0A5F120050EF1200E012A03FA0EFCDD
:1003180028BF4CF0020C43FA05F3C01851EBE37107
:1003280001F0004507D54FF0000EDCF1000C7EEB24
:1003380000006EEB0101B1F5801F1BD3B1F5001F62
:100348000CD349085FEA30004FEA3C0C04F1010481
:100358004FEA445212F5800F80F09A80BCF1004FAA
:1003680008BF5FEA500C50F1000041EB045141EA2C
:10037800050130BD5FEA4C0C404141EB010111F42D
:10038800801FA4F10104E9D191F0000F04BF0146D8
:100398000020B1FA81F308BF2033A3F10B03B3F1B6
:1003A80020020CDA0C3208DD02F1140CC2F10C0246
:1003B80001FA0CF021FA02F10CE002F11402D8BFA4
:1003C800C2F1200C01FA02F120FA0CFCDCBF41EA70
:1003D8000C019040E41AA2BF01EB0451294330BD3F
:1003E8006FEA04041F3C1CDA0C340EDC04F114041C
:1003F800C4F1200220FA04F001FA02F340EA0300F3
:1004080021FA04F345EA030130BDC4F10C04C4F138
:10041800200220FA02F001FA04F340EA0300294618
:1004280030BD21FA04F0294630BD94F0000F83F462
:10043800801306BF81F480110134013D4EE77FEA45
:10044800645C18BF7FEA655C29D094EA050F08BF91
:1004580090EA020F05D054EA000C04BF1946104672
:1004680030BD91EA030F1EBF0021002030BD5FEAB6
:10047800545C05D14000494128BF41F0004130BDDE
:1004880014F580043CBF01F5801130BD01F0004532
:1004980045F0FE4141F470014FF0000030BD7FEAA5
:1004A800645C1ABF194610467FEA655C1CBF0B46A0
:1004B800024650EA013406BF52EA033591EA030FB7
:1004C80041F4002130BD00BF90F0000F04BF0021AF
:1004D800704730B54FF4806404F132044FF00005E2
:1004E8004FF0000150E700BF90F0000F04BF00215B
:1004F800704730B54FF4806404F1320410F00045C1
:1005080048BF40424FF000013EE700BF42004FEABB
:10051800E2014FEA31014FEA02701FBF12F07F4338
:1005280093F07F4F81F06051704792F0000F14BF35
:1005380093F07F4F704730B54FF4607401F0004579
:1005480021F0004120E700BF50EA010208BF7047D0
:1005580030B54FF000050AE050EA010208BF7047C5
:1005680030B511F0004502D5404261EB41014FF42E
:10057800806404F132045FEA915C3FF4DCAE4FF032
:1005880003025FEADC0C18BF03325FEADC0C18BF19
:10059800033202EBDC02C2F1200300FA03FC20FA6A
:1005A80002F001FA03FE40EA0E0021FA02F11444B7
:1005B800C1E600BF70B54FF0FF0C4CF4E06C1CEACC
:1005C80011541DBF1CEA135594EA0C0F95EA0C0F41
:1005D80000F0DEF82C4481EA030621EA4C5123EAB4
:1005E8004C5350EA013518BF52EA033541F48011E3
:1005F80043F4801338D0A0FB02CE4FF00005E1FB96
:1006080002E506F00042E0FB03E54FF00006E1FBDF
:1006180003569CF0000F18BF4EF0010EA4F1FF0422
:10062800B6F5007F64F5407404D25FEA4E0E6D4162
:1006380046EB060642EAC62141EA55514FEAC52073
:1006480040EA5E504FEACE2EB4F1FD0C88BFBCF5EF
:10065800E06F1ED8BEF1004F08BF5FEA500E50F1A0
:10066800000041EB045170BD06F0004646EA010166
:1006780040EA020081EA0301B4EB5C04C2BFD4EB98
:100688000C0541EA045170BD41F480114FF0000E91
:10069800013C00F3AB8014F1360FDEBF002001F0FF
:1006A800004170BDC4F10004203C35DA0C341BDC79
:1006B80004F11404C4F1200500FA05F320FA04F04B
:1006C80001FA05F240EA020001F0004221F000417F
:1006D80010EBD37021FA04F642EB06015EEA430EF2
:1006E80008BF20EAD37070BDC4F10C04C4F1200522
:1006F80000FA04F320FA05F001FA04F240EA0200D5
:1007080001F0004110EBD37041F100015EEA430EA5
:1007180008BF20EAD37070BDC4F1200500FA05F2C5
:100728004EEA020E20FA04F301FA05F243EA020344
:1007380021FA04F001F0004121FA04F220EA020053
:1007480000EBD3705EEA430E08BF20EAD37070BD99
:1007580094F0000F0FD101F00046400041EB010179
:1007680011F4801F08BF013CF7D041EA060195F05B
:10077800000F18BF704703F00046520043EB030315
:1007880013F4801F08BF013DF7D043EA0603704702
:1007980094EA0C0F0CEA135518BF95EA0C0F0CD00D
:1007A80050EA410618BF52EA4306D1D181EA030153
:1007B80001F000414FF0000070BD50EA410606BF4D
:1007C8001046194652EA430619D094EA0C0F02D192
:1007D80050EA013613D195EA0C0F05D152EA0336D7
:1007E8001CBF104619460AD181EA030101F00041F5
:1007F80041F0FE4141F470014FF0000070BD41F03E
:10080800FE4141F4780170BD70B54FF0FF0C4CF417
:10081800E06C1CEA11541DBF1CEA135594EA0C0F36
:1008280095EA0C0F00F0A7F8A4EB050481EA030E83
:1008380052EA03354FEA013100F088804FEA03336A
:100848004FF0805545EA131343EA12634FEA022238
:1008580045EA111545EA10654FEA00260EF00041F9
:100868009D4208BF964244F1FD0404F5407402D24B
:100878005B084FEA3202B61A65EB03055B084FEADC
:1008880032024FF480104FF4002CB6EB020E75EBD9
:10089800030E22BFB61A754640EA0C005B084FEA01
:1008A8003202B6EB020E75EB030E22BFB61A75467E
:1008B80040EA5C005B084FEA3202B6EB020E75EBC9
:1008C800030E22BFB61A754640EA9C005B084FEA41
:1008D8003202B6EB020E75EB030E22BFB61A75464E
:1008E80040EADC0055EA060E18D04FEA051545EA3D
:1008F80016754FEA06164FEAC30343EA52734FEAE6
:10090800C2025FEA1C1CC0D111F4801F0BD141EA5E
:1009180000014FF000004FF0004CB6E711F4801FC3
:1009280004BF01430020B4F1FD0C88BFBCF5E06FA3
:100938003FF6AFAEB5EB030C04BFB6EB020C5FEAB3
:10094800500C50F1000041EB045170BD0EF0004E08
:100958004EEA113114EB5C04C2BFD4EB0C0541EA3A
:10096800045170BD41F480114FF0000E013C90E637
:1009780045EA060E8DE60CEA135594EA0C0F08BFFB
:1009880095EA0C0F3FF43BAF94EA0C0F0AD150EAFA
:1009980001347FF434AF95EA0C0F7FF425AF10468D
:1009A80019462CE795EA0C0F06D152EA03353FF4B5
:1009B800FDAE1046194622E750EA410618BF52EA32
:1009C80043067FF4C5AE50EA41047FF40DAF52EA06
:1009D80043057FF4EBAE12E74FF0FF3C06E000BFA3
:1009E8004FF0010C02E000BF4FF0010C4DF804CDB0
:1009F8004FEA410C7FEA6C5C4FEA430C18BF7FEA70
:100A08006C5C1BD001B050EA410C0CBF52EA430C9D
:100A180091EA030F02BF90EA020F0020704710F11D
:100A2800000F91EA030F58BF994208BF90422CBFAC
:100A3800D8176FEAE37040F0010070474FEA410CA5
:100A48007FEA6C5C02D150EA013C07D14FEA430CC3
:100A58007FEA6C5CD6D152EA033CD3D05DF8040B34
:100A6800704700BF8446104662468C461946634666
:100A780000E000BF01B5FFF7B7FF002848BF10F13D
:100A8800000F01BD4DF808EDFFF7F4FF0CBF012082
:100A980000205DF808FB00BF4DF808EDFFF7EAFFFE
:100AA80034BF012000205DF808FB00BF4DF808EDB9
:100AB800FFF7E0FF94BF012000205DF808FB00BFAE
:100AC8004DF808EDFFF7CEFF94BF012000205DF838
:100AD80008FB00BF4DF808EDFFF7C4FF34BF012045
:100AE80000205DF808FB00BF4FEA410C7FEA6C5C10
:100AF80002D150EA013C0AD14FEA430C7FEA6C5C10
:100B080002D152EA033C02D14FF0000070474FF087
:100B1800010070474FEA410212F5001215D211D5B3
:100B28006FF47873B3EB625212D94FEAC12343F0E2
:100B3800004343EA505311F0004F23FA02F018BF64
:100B4800404270474FF00000704750EA013005D12D
:100B580011F0004008BF6FF0004070474FF00000F0
:100B6800704700BF53B94AB9002908BF00281CBF05
:100B78004FF0FF314FF0FF3000F07AB9ADF1080CBB
:100B88006DE904CE00F006F8DDF804E0DDE90223A3
:100B980004B070472DE9F0478C460E460446089D80
:100BA800002B50D18A4217466CD9B2FA82FEBEF1A8
:100BB800000F0BD0CEF1200C01FA0EF620FA0CFC37
:100BC80002FA0EF74CEA060C00FA0EF43A0CBCFBDB
:100BD800F2F9BBB202FB19CC09FB03FA4FEA14483D
:100BE80048EA0C46B2450AD9F61909F1FF3180F0F6
:100BF8002581B24540F22281A9F102093E44A6EBC3
:100C08000A06B6FBF2F002FB106600FB03F3A4B27F
:100C180044EA0644A34209D9E41900F1FF3280F0FE
:100C28000B81A34240F2088102383C440021E41AB7
:100C380040EA0940002D62D0002324FA0EF42C600B
:100C48006B60BDE8F0878B4207D9002D55D0002195
:100C580085E841000846BDE8F087B3FA83F100292A
:100C680040F08F80B34202D3824200F2FC80841AA3
:100C780066EB03060120B446002D40D085E810102D
:100C8800BDE8F08712B90127B7FBF2F7B7FA87FE7C
:100C9800BEF1000F35D10121F61B4FEA174C1FFAA0
:100CA80087F8B6FBFCF20CFB126608FB02F0230C7B
:100CB80043EA0646B04207D9F61902F1FF3302D2D9
:100CC800B04200F2D2801A46361AB6FBFCF00CFB92
:100CD800106608FB00F8A3B243EA0644A04507D90A
:100CE800E41900F1FF3302D2A04500F2B98018469A
:100CF800A4EB080440EA02409CE729462846BDE8E0
:100D0800F08707FA0EF7CEF1200326FA03F24FEA2E
:100D1800174CB2FBFCF11FFA87F80CFB112206FAFC
:100D28000EF620FA03F301FB08F933431E0C46EADA
:100D38000246B14500FA0EF409D9F61901F1FF325D
:100D480080F08C80B14540F2898002393E44A6EBA0
:100D58000906B6FBFCF00CFB106200FB08F99EB21A
:100D680046EA0246B14507D9F61900F1FF3371D2B8
:100D7800B1456FD902383E44A6EB090640EA014165
:100D88008FE7C1F1200722FA07F88B4048EA0303EE
:100D980026FA07F44FEA134EB4FBFEF91FFA83FC58
:100DA8000EFB19448E4020FA07F809FB0CFA48EAB2
:100DB80006084FEA184646EA0444A24502FA01F238
:100DC80000FA01F608D9E41809F1FF3044D2A24527
:100DD80042D9A9F102091C44A4EB0A04B4FBFEF0B1
:100DE8000EFB104400FB0CFC1FFA88F848EA044488
:100DF800A44507D9E41800F1FF3E29D2A44527D914
:100E080002381C4440EA0940A0FB0289A4EB0C0C00
:100E1800CC45C246CE4615D312D055B1B6EB0A031F
:100E28006CEB0E0606FA07F7CB401F43CE402F6047
:100E38006E600021BDE8F0871046F7E68946DEE6D9
:100E48004645EAD2B8EB020A69EB030E0138E4E73B
:100E58007046D7E718468FE78146BDE7114676E723
:100E680002383C4444E7084606E7023A3E442BE78A
:100E7800704700BF80B582B000AF0121042004F0A4
:100E88005BF84FF48073BB801023FB710323BB71A5
:100E98003B1D19460F4803F053FD4FF40063BB8018
:100EA8001023FB710323BB713B1D1946094803F04E
:100EB80047FD4FF48053BB804823FB713B1D194607
:100EC800044803F03DFD00F007F800BF0837BD46B1
:100ED80080BD00BF0008014080B582B000AF00238C
:100EE800BB80324B01221A60012004F071FE2F4BA7
:100EF80000221A60012004F06BFE2C4B01221A60BC
:100F0800012004F065FE2A4B01221A60012004F03A
:100F18005FFE4FF48051274803F0CEFD0346002BB7
:100F280002D1BB880133BB800023FB711CE0204B3E
:100F380000221A60012004F04BFE1D4B01221A60AA
:100F4800012004F045FEBB885B00BB804FF4805154
:100F5800184803F0B1FD0346002B02D1BB880133CA
:100F6800BB80FB790133FB71FB790E2BDFD90F4B6B
:100F780001221A600E4B01221A60BB8823F0C003BD
:100F88009B049B0CBB800C4B1B88BA889A4207D0E9
:100F9800BB881946094805F0F1FC074ABB8813804D
:100FA800BB8818460837BD4680BD00BFAC0121424A
:100FB800A0012142000801400200002098B9000861
:100FC80080B582B000AF0121142003F0B5FF1223D1
:100FD800BB801023FB710323BB713B1D19460F48CF
:100FE80003F0AEFC0823BB801023FB710323BB7105
:100FF8003B1D19460A4803F0A3FC0A4B00221A605D
:10100800094B00221A60094B00221A60084B012282
:101018001A7000BF0837BD4680BD00BF00080140F8
:1010280000100140840121428C012242900121429A
:10103800DC06002080B584B000AF0346FB710023B6
:10104800FB731CE097F90730002B03DA154B0122DC
:101058001A6002E0134B00221A60134B00221A6038
:10106800012004F0B5FD104B01221A60012004F0A4
:10107800AFFDFB795B00FB71FB7B0133FB73FB7BF3
:10108800072BDFD9094B00221A60012004F0A0FDCC
:10109800064B01221A60012004F09AFD00BF1037A8
:1010A800BD4680BD90012142840121428C0122422B
:1010B80080B582B000AF0346FB710F4B1B78002B45
:1010C80015D00D4B5B785AB2FB79C3F107030121A8
:1010D80001FA03F35BB2DB435BB213405BB2DAB2F3
:1010E800054B5A70044B5B781846FFF7A3FF00BF07
:1010F8000837BD4680BD00BFDC06002080B582B041
:1011080000AF0346FB710E4B1B78002B13D00C4B22
:101118005B785AB2FB79C3F10703012101FA03F3A3
:101128005BB213435BB2DAB2054B5A70044B5B787F
:101138001846FFF77FFF00BF0837BD4680BD00BFD8
:10114800DC06002080B582B000AF0346FB710E4B71
:101158001B78002B13D00C4B5B785AB2FB79C3F188
:101168000703012101FA03F35BB253405BB2DAB221
:10117800054B5A70044B5B781846FFF75BFF00BFBE
:101188000837BD4680BD00BFDC06002080B500AF33
:1011980001214FF0804004F055F90346002B0BD095
:1011A80001214FF0804004F076F900214FF0804093
:1011B80004F006F900F026FE00BF80BD80B500AF40
:1011C8000121064804F03EF90346002B03D0012113
:1011D800024804F060F900BF80BD00BF0004004071
:1011E80080B500AF0121264804F02CF90346002BF6
:1011F80043D00121224804F04EF90021204804F090
:10120800DFF8204B93F8133A012B08D11D4B00222D
:1012180083F8132A20221C49012002F0D9FE194B19
:1012280093F8143A012B08D1164B002283F8142A9C
:101238005A221549012002F0CBFE134B93F85C307B
:10124800012B08D1104B002283F85C200E4A0D496F
:10125800012002F043FC0C4B93F85D30012B08D1C0
:10126800094B002283F85D20074A0649022002F054
:1012780035FC0121024804F0A3F800BF80BD00BF7F
:10128800000C0040CC1200205008002080B586B029
:1012980000AF03460A46FB801346BB80194803F09B
:1012A800FDFE0121042003F065FEFB883B82BB881C
:1012B800BB8100237B820023FB8107F10C031946C5
:1012C800104804F001F8012201210E4804F097F8B3
:1012D80001210C4804F0DFF81E233B7200237B72C7
:1012E8000023BB720123FB7207F10803184603F0C1
:1012F800A9F90121034804F063F800BF1837BD4677
:1013080080BD00BF0008004080B586B000AF03462E
:101318000A46FB801346BB804FF0804003F0BEFEB8
:10132800404803F0BBFE404803F0B8FE012101200D
:1013380003F020FE0121022003F01CFE01210820F9
:1013480003F018FEFB883B82BB88BB8100237B82AD
:101358000023FB8107F10C0319464FF0804003F08E
:10136800B3FF07F10C0319462E4803F0ADFF052320
:101378003B8248F69F43BB8100237B820023FB818D
:1013880007F10C031946284803F09EFF01220121AA
:101398004FF0804004F033F801220121214804F085
:1013A8002EF801220121204804F029F801214FF0EC
:1013B800804004F070F801211A4804F06CF801210B
:1013C800194804F068F81C233B7202237B7201233E
:1013D800BB720123FB7207F10803184603F032F9C8
:1013E8001D233B7202237B720223BB720123FB7213
:1013F80007F10803184603F025F932233B7201234D
:101408007B720023BB720123FB7207F108031846A5
:1014180003F018F90121044803F0D2FF00BF183780
:10142800BD4680BD00040040000C004080B500AF00
:1014380001212D4804F006F80346002B00F0CE8168
:101448000121294804F027F8284B93F8103A002B7B
:1014580013D0274B1B889BB201339AB2244B1A80B6
:10146800234B1B889BB2B3F5FA6F06D1204B0022A1
:101478001A801E4B012283F8132A1C4B93F80F3A4B
:10148800002B16D0194B002283F80F2A174B012284
:1014980083F8122A174B01221A60144B002283F892
:1014A8000E2A124B012283F8132A104B012283F8CB
:1014B800102A0E4B93F80E3A002B1FD00E4B1B78B8
:1014C800DBB20133DAB20C4B1A700B4B1B78DBB270
:1014D800322B16D1084B00221A70064A054B1B689E
:1014E80083F0010313600CE000080040CC120020D8
:1014F80002070020BC012142F8060020A44B01226B
:101508001A60A44B93F8123A002B2CD0A24B1B68FC
:101518000133A14A1360A14B93F831301A46642372
:1015280003FB02F31A469C4B1B689A421BD19A4B49
:1015380000221A609A4802F015FD9A4B1B78DBB21C
:101548000133DAB2974B1A70944B93F83220954BCB
:101558001B78DBB29A4206D1924B00221A708D4B4F
:10156800012283F8142A904B1B78DBB2002B18D089
:101578008E4B1B889BB201339AB28C4B1A808B4BD3
:101588001B889BB2B3F5967F0BD1894805F06EFA9C
:10159800864B00221A80844B00221A70854BFF224A
:1015A8001A70854B9B7B002B0FD0834B1B7D01331F
:1015B800DAB2814B1A75804B1B7D142B05D17E4BFB
:1015C80000221A750120FFF7BDFD7B4BDB7B002B4A
:1015D8000FD0794B5B7D0133DAB2774B5A75764B76
:1015E8005B7D142B05D1744B00225A750220FFF73E
:1015F800A9FD714B1B7C002B0FD06F4B9B7D0133DA
:10160800DAB26D4B9A756C4B9B7D142B05D16A4BE6
:1016180000229A750320FFF795FD674B5B7C002B32
:101628000FD0654BDB7D0133DAB2634BDA75624B61
:10163800DB7D142B05D1604B0022DA750420FFF7FF
:1016480081FD5D4B9B7C002B0FD05B4B1B7E0133D8
:10165800DAB2594B1A76584B1B7E142B05D1564BD0
:1016680000221A760520FFF76DFD534BDB7C002B1B
:101678000FD0514B5B7E0133DAB24F4B5A764E4B4B
:101688005B7E142B05D14C4B00225A760620FFF7BF
:1016980059FD494B9B78002B0FD0474B1B7A0133E0
:1016A800DAB2454B1A72444B1B7A502B05D1424B88
:1016B80000221A720120FFF745FD3F4BDB78002B13
:1016C8000FD03D4B5B7A0133DAB23B4B5A723A4B3F
:1016D8005B7A502B05D1384B00225A720220FFF753
:1016E80031FD354B1B79002B0FD0334B9B7A0133DF
:1016F800DAB2314B9A72304B9B7A502B05D12E4B74
:1017080000229A720320FFF71DFD2B4B5B79002BFB
:101718000FD0294BDB7A0133DAB2274BDA72264B2A
:10172800DB7A502B05D1244B0022DA720420FFF714
:1017380009FD214B9B79002B0FD01F4B1B7B0133DD
:10174800DAB21D4B1A731C4B1B7B502B05D11A4B5D
:1017580000221A730520FFF7F5FC174BDB79002BE5
:101768000FD0154B5B7B0133DAB2134B5A73124B14
:101778005B7B502B05D1104B00225A730620FFF7D4
:10178800E1FC0E4B1B78DBB20133DAB218E000BF84
:10179800BC012142CC120020FC060020E81C0020DD
:1017A8000044004000070020F6060020060700203D
:1017B800ACB9000804000020DC0600200407002063
:1017C800074B1A70064B1B78DBB2022B06D1044B71
:1017D80000221A70034B012283F85B2000BF80BDF2
:1017E800040700205008002080B582B000AF012116
:1017F800042003F0A1FBE023BB801023FB7103232B
:10180800BB713B1D1946054803F09AF8E0210348CF
:1018180003F079F900BF0837BD4680BD00080140D4
:1018280080B584B000AF0346FB71114B01221A60EA
:10183800642004F0CDF90E4B00221A60642004F0F5
:10184800C7F90023FB730BE00A4B01221A606420DE
:1018580004F0BEF9074B00221A60FB7B0133FB73CF
:10186800FA7BFB799A42EFD300BF1037BD4680BDA3
:10187800980121429401214280B483B000AF78607E
:101888007B681B889BB218460C37BD4680BC7047E6
:1018980080B586B000AFF860B9601346FB800023BE
:1018A800FB820EE0FB8A5B00BA6813441B8819466A
:1018B800F86802F0CBFFFB680233FB60FB8A013358
:1018C800FB82FA8AFB889A42ECD300BF1837BD46E0
:1018D80080BD000080B588B000AFF860B9601346DD
:1018E800FB80FB68B3F1006FC0F09380FB684B4A44
:1018F800934200F28E8002F057FFFB6803F17843B1
:101908003B613B69DB0AFB613B69C3F30A035B0884
:101918007B837B8BC3F580633B83FA883B8B9A423E
:1019280001D8FB883B83FB6903F58033DB024FF466
:1019380080623B49184600F075F80023FB820CE0F2
:101948007A8BFB8A1344364A32F813304FF6FF720B
:10195800934207D1FB8A0133FB82FA8A3B8B9A4276
:10196800EED300E000BFFA8A3B8B9A4226D2FB698D
:1019780003F58033DB02184602F036FF0023FB82B2
:101988000DE0FA8A7B8B1344FA8A5200B9680A443C
:101998001188234A22F81310FB8A0133FB82FA8A42
:1019A8003B8B9A42EDD3FB6903F58033DB024FF49E
:1019B80080621B491846FFF76BFF05E03B8B1A4610
:1019C800B968F868FFF764FFFA883B8B9A421CD025
:1019D800FB690133FB6100237B833B8B5B00BA68A7
:1019E8001344BB603B8BFA681344FB60FA883B8B5B
:1019F800D31AFB80FB88B3F5806F03D94FF480635B
:101A08003B8390E7FB883B838DE700BF02F0DEFE57
:101A180000E000BF2037BD4680BD00BFFFFF0308C0
:101A28009427002090B587B000AFF860B9601346DE
:101A3800FB800023FB820EE0FB8A5B00BA68D418A7
:101A4800F868FFF719FF03462380FB680233FB6041
:101A5800FB8A0133FB82FA8AFB889A42ECD300BFE7
:101A68001C37BD4690BD000080B500AF0422044974
:101A78000448FFF7D7FF024B00221A7200BF80BD4F
:101A88000C07002004F8030880B500AF0A220449B7
:101A98000448FFF7C7FF024B00221A7500BF80BD3C
:101AA8001807002020F8030880B500AF3222054946
:101AB8000548FFF7B7FF034B002283F8642000BFF7
:101AC80080BD00BF3007002040F8030880B582B011
:101AD80000AF03460A46FB711346BB71FB79064902
:101AE800BA79CA54032204490448FFF7F3FE00BF39
:101AF8000837BD4680BD00BF9807002000FF0308D7
:101B080080B582B000AF0346FB7103220549064841
:101B1800FFF788FFFB79034AD35C18460837BD46B0
:101B280080BD00BF9807002000FF030880B582B081
:101B380000AF0121042003F0FFF94FF40043BB80FC
:101B48001023FB710323BB713B1D1946094802F0A2
:101B5800F7FE0121012003F0EFF90121064802F008
:101B6800E1FF4FF40041034802F0CDFF00BF083702
:101B7800BD4680BD000801400002300080B588B035
:101B880000AF78602A4803F097FC01214FF4003039
:101B980003F0F0F90121042003F0CEF90423BB83FC
:101BA8000323BB771823FB7707F11C031946214849
:101BB80002F0C6FE0823BB830423FB7707F11C034E
:101BC80019461C4802F0BCFE26233B7201237B7297
:101BD8000223BB720123FB7207F10803184602F0C7
:101BE80031FD7B68FB6000233B8200237B8200235E
:101BF800BB8200233B830C23FB8207F10C031946AD
:101C08000B4803F0B5FC012240F22551084803F0C7
:101C180088FD01224FF45871054803F082FD012127
:101C2800034803F05FFD00BF2037BD4680BD00BFFD
:101C3800004400400008014080B584B000AF7860DF
:101C48007868FFF79BFF0121102003F075F9032343
:101C5800BB811023FB730323BB7307F10C031946E5
:101C68000D4802F06DFE0D4B012283F80E2A0B4B36
:101C7800002283F80D2A094B002283F8122A074B09
:101C8800002283F80F2A01214FF0804003F098FBCF
:101C980000BF1037BD4680BD00100140CC120020A7
:101CA80080B582B000AF40F225514E4803F0CBFD1D
:101CB8000346002B00F0848040F22551494803F088
:101CC8001CFE484803F085FD0346FB70464BB3F8FD
:101CD800183AC3F30E039BB21A4640F2FE339A42F7
:101CE80014DC414BB3F8183AC3F30E0399B24B1CFA
:101CF800C3F30E0398B23C4AB2F8183A60F30E03E5
:101D0800A2F8183A384AFB7853540CE0374804F0E4
:101D1800ADFE4FF480620021334804F026FE324BBA
:101D28000022A3F8182AFB785D2B49D15B212E48A5
:101D380004F00BFF0346002B42D02B4B7B602A4B51
:101D4800002283F8112A02E07B6801337B607B68FC
:101D58001B785B2BF8D102E07B6801337B607B68E2
:101D68001B785B2BF8D02249786804F05BFF0246A9
:101D78001D4BC3F800281C4BD3F800381D491846E2
:101D880002F0FCFA1B491C4804F0F8FD4FF480628D
:101D98000021154804F0E9FD134AB2F8183A6FF328
:101DA8000E03A2F8183A104B93F80D3A012B07D1FD
:101DB80012490D4801F0D8FC114B012283F85C2030
:101DC8000821084803F014FD0346002B06D008211B
:101DD800044803F028FD034803F0FBFC00BF083764
:101DE800BD4680BD00440040CC120020B8B90008B0
:101DF800CCB90008CC160020D0B90008E8B9000812
:101E08005008002080B582B002AF0221294802F0B4
:101E18006CFE4FF47A7003F00FFF4FF47A7003F002
:101E28000BFF4FF47A7003F007FF4FF47A7003F05A
:101E380003FF02211F4802F066FE01211D4802F03F
:101E480054FE40F24C4003F0F7FE0121194802F01D
:101E58005AFE4FF4FA7003F0EFFE00F00BFA4FF45D
:101E6800FA7300930023144A1449012001F09CFBE3
:101E78004FF4FA73009300230F4A1149012001F02F
:101E880093FB012001F014FC034683F00103DBB24D
:101E9800002BBAD100F0FEF80A490B4800F01AF8F6
:101EA8000A4B012283F80D2A094802F019F900BFEC
:101EB800BD4680BD00100140ECB90008F0B900082B
:101EC800FCB900081B1D0020FA1C0020CC120020C1
:101ED8000044004080B586B002AF78603960642065
:101EE80003F03AFEF8603B687A685B49F86804F0EA
:101EF800F9FD00BF4FF4FA7300930023574A58497D
:101F0800012001F051FB034683F00103DBB2002BF3
:101F1800F0D100BF4FF4FA7300930023514A52499D
:101F2800012001F041FB034683F00103DBB2002BE3
:101F3800F0D100BF4FF4FA7300930023494A4B498C
:101F4800012001F031FB034683F00103DBB2002BD3
:101F5800F0D100BF4FF4FA7300930023414A44497B
:101F6800012001F021FB034683F00103DBB2002BC3
:101F7800F0D1404B93F83030332B10D100BF4FF4E1
:101F8800E16300930023374A3B49012001F00CFB31
:101F9800034683F00103DBB2002BF0D12AE0354B76
:101FA80093F83030362B10D100BF4FF4E163009323
:101FB80000232C4A3149012001F0F6FA034683F048
:101FC8000103DBB2002BF0D114E02A4B93F8303038
:101FD800392B0FD100BF4FF4E16300930023214A4E
:101FE8002749012001F0E0FA034683F00103DBB240
:101FF800002BF0D100BF4FF4FA7300930023194A65
:102008002049012001F0D0FA034683F00103DBB236
:10201800002BF0D14FF4FA7300930023114A1A49A8
:10202800012001F0C1FA4FF4E1630093174B184AFD
:10203800F968012001F0B8FA034683F00103DBB226
:10204800002B7FF456AFF86803F070FD01231846A3
:102058001037BD4680BD00BF08BA000824BA000882
:102068002CBA0008ECB9000838BA000844BA0008CD
:1020780050BA00085008002060BA000870BA00087A
:1020880088BA000898BA0008A4BA0008B0BA0008CC
:10209800C0BA000880B584B002AF00237B6000237B
:1020A800FB70634B30221A80624B30221A8000BFCB
:1020B8004FF4FA73009300235F4A6049012001F04E
:1020C80073FA034683F00103DBB2002BF0D15C4BBB
:1020D8007B600023FB7002E07B6801337B607B68D8
:1020E8001B78392BF8D87B681B782F2BF4D90BE099
:1020F800FB785A1CFA7019467B681A784C4B0B44CB
:102108001A767B6801337B607B681B78392B03D890
:102118007B681B782F2BEBD87B681B785A2B03D84E
:102128007B681B78402BE3D87B681B787A2B03D815
:102138007B681B78602BDBD84249434804F01EFCBF
:1021480000BF4FF47A7300930023404A40490120AE
:1021580001F02AFA034683F00103DBB2002BF0D129
:1021680000BF4FF4FA73009300233A4A3A4901201A
:1021780001F01AFA034683F00103DBB2002BF0D119
:1021880036492F4804F032FD0346002B04D0284B73
:10219800332283F830200FE03149294804F026FD26
:1021A8000346002B04D0224B362283F8302003E06C
:1021B8001F4B392283F830201D4B93F830301946D5
:1021C800284804F0DBFB00BF4FF4FA7300930023A8
:1021D8001E4A2549012001F0E7F9034683F001036F
:1021E800DBB2002BF0D1164B7B6000BF7B685A1C1A
:1021F8007A601B783A2BF9D17B6801337B601B49E5
:10220800786804F00FFD0346184604F061FB0346A6
:10221800DAB2074B83F83120054B93F83130194671
:10222800134804F0ABFB00BF0837BD4680BD00BFB4
:10223800500800205C080020C8BA0008D0BA00087E
:10224800CC12002068080020DCBA0008ECB90008AD
:10225800E8BA0008F4BA0008FCBA000808BB00088D
:1022680010BB000818BB000828BB0008E8B9000824
:1022780030BB000880B500AF4FF47A7003F0DCFC87
:102288000449054801F0ECF84FF4FA7003F0D4FC67
:1022980000BF80BD3CBB00080044004080B582B050
:1022A80000AF0121382002F047FE4FF47043BB8095
:1022B8001023FB710323BB713B1D1946194802F01B
:1022C8003FFB4FF47E73BB801023FB710323BB716C
:1022D8003B1D1946144802F033FB0423BB8010232E
:1022E800FB710323BB713B1D1946104802F028FB04
:1022F8000121012002F020FE01210D4802F012FC0C
:102308004FF47E71084802F0FEFB4FF47041054817
:1023180002F0F9FB0421054802F0F5FB00BF08377D
:10232800BD4680BD00100140000C01400014014072
:102338000002300080B483B000AF03460A46FB7148
:102348001346BB71FB79013B052B57D801A252F804
:1023580023F000BF752300088D230008A52300087B
:10236800BD230008D5230008ED230008264ABB79C1
:102378001360264ABB79002B0CBF01230023DBB274
:1023880013603CE0224ABB791360224ABB79002BD8
:102398000CBF01230023DBB2136030E01E4ABB7977
:1023A80013601E4ABB79002B0CBF01230023DBB24C
:1023B800136024E01A4ABB7913601A4ABB79002BD0
:1023C8000CBF01230023DBB2136018E0164ABB7967
:1023D8001360164ABB79002B0CBF01230023DBB224
:1023E80013600CE0124ABB791360124ABB79002BC8
:1023F8000CBF01230023DBB2136000E000BF00BF65
:102408000C37BD4680BC7047BC012242B80122424D
:10241800B4012242A4812142A08121429C8121420F
:102428009881214294812142908121428C812142CC
:1024380088812242B001224280B584B000AF0346B1
:102448000A46FB711346BB71FB79002B08D0FB7958
:10245800062B05D8BB79002B02D00120FFF7E0F945
:10246800FB79013B052B00F2118101A252F823F000
:1024780091240008E72400083D250008932500085A
:10248800E92500083F260008854B01221A60854B84
:1024980000221A600023FB8105E0642003F0CCFBD6
:1024A800FB890133FB81804B1B7C9BB2FA899A42E2
:1024B800F3D37B4B00221A607A4B01221A60002367
:1024C800FB8105E0642003F0B7FBFB890133FB8146
:1024D800754B5B7C9BB2FA899A42F3D3D7E0734B76
:1024E80001221A60724B00221A600023FB8105E06A
:1024F800642003F0A1FBFB890133FB816A4B1B7C41
:102508009BB2FA899A42F3D3684B00221A60684B4F
:1025180001221A600023FB8105E0642003F08CFB94
:10252800FB890133FB81604B5B7C9BB2FA899A4241
:10253800F3D3ACE05F4B01221A605F4B00221A60B4
:102548000023FB8105E0642003F076FBFB8901335F
:10255800FB81554B1B7C9BB2FA899A42F3D3554BAE
:1025680000221A60544B01221A600023FB8105E007
:10257800642003F061FBFB890133FB814A4B5B7CE0
:102588009BB2FA899A42F3D381E04C4B01221A603C
:102598004B4B00221A600023FB8105E0642003F006
:1025A8004BFBFB890133FB813F4B1B7C9BB2FA89B8
:1025B8009A42F3D3414B00221A60414B01221A6020
:1025C8000023FB8105E0642003F036FBFB8901331F
:1025D800FB81354B5B7C9BB2FA899A42F3D356E078
:1025E800384B01221A60384B00221A600023FB8105
:1025F80005E0642003F020FBFB890133FB812A4BB3
:102608001B7C9BB2FA899A42F3D32E4B00221A60A4
:102618002D4B01221A600023FB8105E0642003F0A2
:102628000BFBFB890133FB811F4B5B7C9BB2FA8957
:102638009A42F3D32BE0254B01221A60244B002247
:102648001A600023FB8105E0642003F0F5FAFB899A
:102658000133FB81144B1B7C9BB2FA899A42F3D35A
:102668001A4B00221A601A4B01221A600023FB81C0
:1026780005E0642003F0E0FAFB890133FB810A4B93
:102688005B7C9BB2FA899A42F3D300E000BFFB79E6
:10269800184600F06BF800BF1037BD4680BD00BF7C
:1026A800BC012242B8012242E81C0020B4012242A7
:1026B800A4812142A08121429C812142988121420A
:1026C80094812142908121428C8121428881224239
:1026D800B001224280B584B000AF234804F0C6F9A7
:1026E8000123FB6008E0FB68DBB201211846FFF715
:1026F80021FEFB680133FB60FB68062BF3DD4FF41A
:102708007A7003F099FA4FF47A7003F095FA4FF45F
:102718007A7003F091FA0123BB6008E0BB68DBB272
:1027280000211846FFF706FEBB680133BB60BB6893
:10273800062BF3DD4FF47A7003F07EFA40F2DC509A
:1027480003F07AFA01237B6007E07B68DBB2184666
:1027580000F00CF87B6801337B607B68062BF4DDA6
:1027680000BF1037BD4680BD40BB000880B483B0B1
:1027780000AF0346FB71FB79013B052B38D801A25A
:1027880052F823F0A5270008B3270008C12700083E
:10279800CF270008DD270008EB270008174B002289
:1027A8001A60174B00221A6023E0164B00221A60A9
:1027B800154B00221A601CE0144B00221A60144BBF
:1027C80000221A6015E0134B00221A60124B0022F7
:1027D8001A600EE0114B00221A60114B00221A6099
:1027E80007E0104B00221A600F4B00221A6000E02D
:1027F80000BF00BF0C37BD4680BC7047BC012242F9
:10280800B8012242B4012242A4812142A08121427E
:102818009C812142988121429481214290812142C8
:102828008C81214288812242B001224280B588B041
:1028380000AF78602A4802F03FFE0121082002F02C
:102848007BFB01214FF4802002F094FB4FF480635E
:10285800BB830323BB771823FB7707F11C031946B7
:10286800204802F06DF84FF40063BB830423FB7724
:1028780007F11C0319461B4802F062F87B68FB60ED
:1028880000233B8200237B820023BB8200233B83FF
:102898000C23FB8207F10C031946114802F068FE6D
:1028A80001210F4802F01EFF40210D4802F0BBFF36
:1028B800012240F225510A4802F033FF27233B72D8
:1028C80000237B720023BB720123FB7207F108030C
:1028D800184601F0B7FE00BF2037BD4680BD00BFD7
:1028E80000480040000C014080B584B000AF78601B
:1028F8007868FFF79BFF0121182002F01DFB4FF4B9
:102908004043BB811023FB730323BB7307F10C0304
:1029180019460A4802F014F84FF4E073BB811023FB
:10292800FB730323BB7307F10C031946044802F039
:1029380007F800BF1037BD4680BD00BF000C01403E
:102948000010014080B582B000AF0346FB71FB79EF
:10295800013B052B62D801A252F823F07D2900081B
:102968008F290008A1290008B3290008D9290008DF
:10297800FF29000840212C4802F0C5F880212A4888
:1029880002F0C1F84BE04021274802F0AEF8802160
:10299800254802F0B8F842E04021234802F0B3F895
:1029A8008021214802F0A1F839E040211E4802F0B8
:1029B8009CF880211C4802F098F84FF480411B488D
:1029C80002F0A1F84FF40041184802F09CF826E004
:1029D8004021154802F089F88021134802F085F853
:1029E8004FF48041114802F080F84FF400410F483D
:1029F80002F089F813E040210B4802F076F88021B4
:102A0800094802F072F84FF48041084802F07BF858
:102A18004FF40041054802F068F800E000BF00BF2D
:102A28000837BD4680BD00BF00100140000C0140C2
:102A380080B584B000AF0346FB710023FB73FB79BC
:102A48001B4A13449B79002B06D1FB790133DBB277
:102A58000121184600F05EFCFB790133DBB2184611
:102A6800FFF770FFFB7B042B01D900231CE0114A00
:102A7800104B1B68002B0CBF01230023DBB2136033
:102A8800022003F0D9F80F2000F066FB322003F093
:102A9800D3F8FB7B0133FB73054B5B78002BE1D04C
:102AA800034B00225A70012318461037BD4680BDDB
:102AB800CC070020A001224280B588B002AF0346AF
:102AC8003960FB710023BB7500237B7500233B75C0
:102AD8000023FB750023FB740023BB7407F10C0370
:102AE80000210A461A800A469A70FEF7F5F903464D
:102AF8001A46654B1A80FB791846FFF799FF03467B
:102B08003B75614B1B889BB2DAB2FB7942FA03F33F
:102B180003F00103002B14BF01230023DBB2BB75B4
:102B2800594B1B889BB21B0A9BB2DAB2FB7942FA5B
:102B380003F303F00103002B14BF01230023DBB2CE
:102B48007B75BB7CDB005AB2BB7D9B005BB2134339
:102B58005AB23B7D5B005BB213435AB297F915300A
:102B680013435BB2FB74FB7C484AD35CFB75FB7D6B
:102B78000B2B02D0FB7D012B0DD1FB791846FEF7FC
:102B8800BFFF0346012B06D1FB7D0B2B01D10A2386
:102B980000E00023FB75FA7DFB791146184600F02A
:102BA800BBF83B7D002B60D0BB7C002B0DD0FA79A5
:102BB800F97D374B9B781846364B019300900B46AE
:102BC8003549386803F08EFF58E0FB7907F10C01AE
:102BD8000A22184603F0BCFE03461946386803F07B
:102BE800C2FF3868FDF726FB03461A463B681344C4
:102BF8002A491A460B461B881380FB7D07F10C01F6
:102C08000A22184603F0A4FE03461946386803F062
:102C18008DFF3868FDF70EFB03461A463B681344E0
:102C28001E491A460B461B881380194B1B781846F9
:102C380007F10C030A22194603F08AFE03461946D7
:102C4800386803F073FF3868FDF7F4FA03461A464C
:102C58003B68134411491A460B461B881380082207
:102C68000C49386803F087FF08E0FA79FB7D009388
:102C780013460B4A0421386803F000FFFB7D184611
:102C88001837BD4680BD00BF0000002094BF000873
:102C9800CC070020D90700204CBB00085CBB00080B
:102CA80060BB000890B583B000AF0023FB71002320
:102CB800FB7125E0FA791346DB0013445B001033FF
:102CC800134A1344053312220021184603F04DFE1F
:102CD800FC79FA791346DB0013445B0010330C4A85
:102CE80013445A1DFB7911461846FFF7E5FE0346C3
:102CF8001A46084B234483F84D20FB790133FB71B6
:102D0800FB79052BD6D900BF0C37BD4690BD00BF57
:102D1800CC0700205008002080B582B000AF0346E1
:102D28000A46FB711346BB71BB790B2B5CD8BB7988
:102D38000A2B23D1FB790133DBB21846FEF7B8F929
:102D4800FB792B4A134400229A70FB79284A1344D2
:102D580000229A73274B1B785E2B07D8FB79013327
:102D6800DBB20121184600F0D5FA3DE0FB790133CA
:102D7800DBB20021184600F0CDFA35E0BB79002B14
:102D88001CD1FB791B4A134400229A71FB79013349
:102D9800DBB20021184600F0BDFAFB790133DBB243
:102DA8001846FEF7ABF9FB79114A134400229A70D2
:102DB800FB790F4A134400229A7315E0FB790D4AF8
:102DC800134400229A71FB790133DBB200211846C3
:102DD80000F0A0FAFB79064A134400229A70FB79A6
:102DE800034A134401229A7300BF0837BD4680BDC9
:102DF800DC060020CC07002080B582B000AF034677
:102E0800FB71FB799BB21946074802F0D1FC00BF61
:102E18004021054802F0ECFC0346012BF8D1FB7970
:102E280018460837BD4680BD0048004080B485B0CC
:102E380000AF78600B46FB700023BB600023FB7378
:102E480026E0FB7B7A6813441B781B021A46BB6892
:102E58005340BB600023BB7314E0BB6803F400431A
:102E6800002B09D0BB685B00BB60BB6883F481534F
:102E780083F00103BB6002E0BB685B00BB60BB7B07
:102E88000133BB73BB7B072BE7D9FB7B0133FB7398
:102E9800FA7BFB789A42D4D3BB6818461437BD46F0
:102EA80080BC70470FB480B485B000AF0023FB60CE
:102EB8000023FB7207F11C037B6026E07B681A1D68
:102EC8007A601B681B021A46FB685340FB600023AC
:102ED800FB7214E0FB6803F40043002B09D0FB6885
:102EE8005B00FB60FB6883F4815383F00103FB60A4
:102EF80002E0FB685B00FB60FB7A0133FB72FB7A44
:102F0800072BE7D9BB69013BBB61BB69002BD5D156
:102F1800FB6818461437BD4680BC04B070470000F3
:102F280080B584B000AF78600B46FB700B4B002275
:102F38005A700023FB7309E0FB7B7A6813441B7803
:102F48001846FFF759FFFB7B0133FB73FA7BFB78CD
:102F58009A42F1D300BF1037BD4680BDA0070020BC
:102F680080B582B000AF0023FB711F4B1A791F4B4D
:102F78001A701D4B5A791D4B5A700023FB710CE0D7
:102F8800FB79FA79013218490A44D178174A13446F
:102F98000A469A70FB790133FB71FA79134B1B7857
:102FA800043B9A42ECDB114B1B78043BDBB219461D
:102FB8000F48FFF73BFF0346BB80BA880B4B1B78D3
:102FC800033B09490B44DB781B020849097802399D
:102FD80005480144C9780B439A4201D100F00AF828
:102FE80000BF0837BD4680BDA0070020B8070020F5
:102FF800BA07002080B483B000AF0023FB71534BA5
:103008005B78832B5ED0832B04DC812B28D0822B2A
:103018003DD095E08F2B04D0FF2B1DD08A2B74D088
:103028008EE04B4B01225A704A4B9A7B484B1A70E0
:103038000023FB710CE0FB79FA79033245490A4415
:10304800D178434A13440A465A73FB790133FB711A
:10305800FB79072BEFD973E03D4B01225A706FE0E3
:103068003B4B01225A700023FB710CE0FB79FA7983
:10307800033238490A44D178354A13440A465A7308
:10308800FB790133FB71FB79072BEFD958E0304B03
:1030980001225A702F4B9A7B2D4B1A700023FB711B
:1030A8000CE0FB79FA7903322A490A44D178284A94
:1030B80013440A465A73FB790133FB71FB79072BDA
:1030C800EFD93DE0224B01225A70224B9B7B1B0219
:1030D8001AB2204BDB7B1BB213431BB29AB21C4BB8
:1030E8009A800023FB710CE0FB79FA7903321949C5
:1030F8000A44D178164A13440A465A73FB790133B5
:10310800FB71FB79072BEFD91AE0114B01225A709A
:10311800104B9A7B0E4B9A700023FB710CE0FB79E5
:10312800FA7903320B490A44D178094A13440A460A
:103138005A73FB790133FB71FB79072BEFD900BF79
:1031480000BF0C37BD4680BC704700BFB8070020E1
:10315800CC070020A007002080B584B000AF03464C
:10316800FB71A0233B7206237B72FB79BB727B7ACF
:103178001946BB7A1A460220FFF794FE0346FB81E4
:10318800FB891B0A9BB2DBB2FB72FB89DBB23B7388
:10319800A1237B737A7A07F1080311461846FFF7D3
:1031A800BFFE00BF1037BD4680BD000080B582B0AD
:1031B80000AF40F22551324802F045FB0346002B90
:1031C8004CD040F225512E4802F097FB2C4802F0D3
:1031D80000FB0346FB712B4B1B78002B3ED1294B80
:1031E8005B781A46274B1344FA79DA70254B5B78DB
:1031F8000133DAB2234B5A70224B5B78022B0AD088
:10320800142B0CD0012B11D1FB79B02B23D01D4BE3
:1032180000225A701FE01B4AFB7993701EE0194B7D
:1032280000225A70184803F021FC17E0154B5A7811
:10323800144B9B789A4210D1FB79B12B0DD1114BCD
:1032480001221A700F4B00225A70FFF789FE0D4BAE
:1032580000221A7001E000BF00E000BF0821084802
:1032680002F0C6FA0346002B06D00821044802F0F3
:10327800DAFA034802F0ADFA00BF0837BD4680BD50
:1032880000480040A007002068BB000880B582B055
:1032980000AF0121182001F04FFE41F20703BB8067
:1032A8001023FB710323BB713B1D1946114801F024
:1032B80047FB3023BB801023FB710323BB713B1DED
:1032C80019460D4801F03CFB0C4B01221A600C4BCF
:1032D80001221A600B4B01221A600B4B01221A6063
:1032E8000A4B01221A600A4B01221A6000BF0837F4
:1032F800BD4680BD000C01400010014090012242F3
:103308009401224280812142848121428881214284
:10331800B081214280B483B000AF03460A46FB71F6
:103328001346BB71FB79013B052B27D801A252F844
:1033380023F000BF553300085D33000865330008EB
:103348006D330008753300087D3300080E4ABB79D9
:10335800136014E00D4ABB79136010E00C4ABB7986
:1033680013600CE00B4ABB79136008E00A4ABB798A
:10337800136004E0094ABB79136000E000BF00BF96
:103388000C37BD4680BC704790012242940122420E
:10339800808121428481214288812142B081214259
:1033A80080B489B000AFF860B9607A600023BB616F
:1033B800BB687B617B680A2B04D07B6900221A708A
:1033C800BB6846E0FB68002B09D17B695A1C7A610F
:1033D80030221A707B6900221A70BB6839E0FB68DA
:1033E800002B07DA7B695A1C7A612D221A70FB6858
:1033F8005B42FB6042F21073FB6123E0FA68FB69F1
:1034080092FBF3F33B613B69002B02D1BB69002BB4
:1034180010D07B695A1C7A613A69D2B23032D2B282
:103428001A703B69FA6902FB03F3FA68D31AFB6066
:103438000123BB61FB69094A82FB03129210DB1767
:10344800D31AFB61FB69002BD8DC7B6900221A7058
:10345800BB6818462437BD4680BC704767666666F9
:103468000EB480B58BB000AF786007F13803FB600D
:103478008EE07B6B1B785C2B1DD17B6B01337B63F0
:103488007B6B1B786E2B09D0722B0FD10D217868BE
:1034980002F08EF97B6B01337B6371E00A21786857
:1034A80002F086F97B6B01337B6369E07B6B013348
:1034B8007B6300BF64E07B6B1B78252B57D17B6B4C
:1034C80001337B637B6B1B78642B21D0732B49D131
:1034D800FB681A1DFA601B687B6211E07B6A1B7827
:1034E8009BB21946786802F063F900BF80217868BA
:1034F80002F07EF90346002BF8D07B6A01337B6229
:103508007B6A1B78002BE9D17B6B01337B6337E047
:10351800FB681A1DFA601B683B6207F110030A2258
:103528001946386AFFF73CFF07F110037B6211E088
:103538007B6A1B789BB21946786802F039F900BF9C
:103548008021786802F054F90346002BF8D07B6A92
:1035580001337B627B6A1B78002BE9D17B6B0133DB
:103568007B630DE07B6B01337B6300BF08E07B6B03
:103578005A1C7A631B789BB21946786802F018F9CE
:1035880000BF8021786802F033F90346002BF8D099
:103598007B6B1B78002B7FF46CAF00BF2C37BD46CC
:1035A800BDE8804003B0704780B586B000AFB96011
:1035B8007A603B600346FB73FB7B012B04D1364BDF
:1035C8007B61364B3B6103E0354B7B61354B3B619F
:1035D8007A69B2F8183A6FF30E03A2F8183ABA6883
:1035E80031493869FFF73CFF7B68002B04D13B6801
:1035F800002B01D101234AE03B6A9BB2184602F036
:103608001BFB7B69B3F8183AC3F30E039BB21A4647
:103618007B69002199547B691946244803F0AEF967
:103628007B68002B19D03B68002B16D07B69796822
:10363800184603F0DBFA0346002B07D17B6939688B
:10364800184603F0D3FA0346002B01D0012300E00B
:10365800002303F00103DBB219E07B68002B0BD0D9
:103668007B697968184603F0C1FA0346002B14BF3A
:1036780001230023DBB20AE07B693968184603F0AE
:10368800B5FA0346002B14BF01230023DBB218460A
:103698001837BD4680BD00BFCC1200200044004052
:1036A800B0080020004C00407CBB000884BB000828
:1036B80090B587B002AF0346FB710023FB730A2065
:1036C80002F04AFAB860FB79012B09D1BB6820499E
:1036D8001A460B4603CB106051601B88138111E01A
:1036E800BB681C4A1C46134607CB20606160A26079
:1036F80008E0F8794FF4FA7300930023164A174943
:10370800FFF752FFFB7B5A1CFA73072BF1D9F879A4
:103718004FF4FA73009300230F4A1049FFF744FF50
:103728000346002B08D0B9680D4803F027F9B8689C
:1037380002F0FCF9012307E0B9680A4803F01EF912
:10374800B86802F0F3F9002318461437BD4690BD57
:1037580088BB000894BB0008A0BB0008A4BB0008F5
:10376800A8BB0008BCBB000880B584B000AF786077
:1037780039607B6803F58063FB600023FB7209E016
:10378800FB680133FB60FB681B782C2B02D1FB7AAA
:103798000133FB72FB7A012BF2D9FB680133FB6022
:1037A8007B6803F604034FF40072F968184603F0C7
:1037B800D1F87B6803F580633968184603F032FA5C
:1037C800F8607B68FA68C3F8042A3968002003F0B7
:1037D80029FAF8607B68FA68C3F8082A00BF10372E
:1037E800BD4680BD80B400AFBFF34F8F0549054B80
:1037F800DB6803F4E062044B1343CB60BFF34F8FE5
:10380800FEE700BF00ED00E00400FA0580B586B0D1
:1038180000AF786039600023FB75C82002F09CF97E
:103828003861C82002F098F9F8603968214803F037
:10383800A5F8F968386800F0B9FCFB681E4AC82189
:10384800386903F01BF913E0FB7D3A6913441B78D0
:103858009BB21946786801F0ABFF00BF80217868F9
:1038680001F0C6FF0346002BF8D0FB7D0133FB7542
:10387800FB7D3A6913441B787D2BE5D1FB7D3A69C2
:1038880013441B789BB21946786801F091FF00BF7A
:103898008021786801F0ACFF0346002BF8D0F86867
:1038A80002F044F9386902F041F900BF1837BD4603
:1038B80080BD00BFD0BB0008D8BB0008F0B591B0F0
:1038C80008AF78613961BB601346FB73124BFB612B
:1038D800FEF7CAF83E69FB7BBA681832B96891F8F6
:1038E8003010796097F83810B868BC680C343D6CB3
:1038F800079506940590F86B0490039179680291F6
:1039080001920093054BFA693146786903F0B6F8DD
:1039180000BF2437BD46F0BDE0BB00080C070020FF
:1039280080B588B002AFF860B9601346FB71084BE8
:103938007B61FEF799F8B968FB790093054B7A69C2
:10394800F86803F09BF800BF1837BD4680BD00BF7C
:10395800FCBB00080C07002080B58AB002AFF860F5
:10396800B96011461A460B46FB711346BB7107F145
:1039780030033B61FEF778F8B968FB79FA6A01927F
:103988000093294B294AF86803F078F80123FB6172
:1039980017E03B691A1D3A611B68BB61F868FCF7C0
:1039A80049FC03461A46FB68134421491A460B464C
:1039B8001B881380B969F86803F0B8F8FB6901330C
:1039C800FB61FA69BB6A9A42E3DB032002F0C4F8A0
:1039D8007861BB79174A0321786903F04FF8F868D2
:1039E800FCF728FC03461A46FB68134410491A469C
:1039F8000B461B8813807969F86803F097F8786993
:103A080002F094F8F868FCF715FC03461A46FB68C0
:103A18001344094A106818609188927999809A71BC
:103A280000BF2037BD4680BD0C07002004BC00083D
:103A380010BC000814BC000818BC000880B58AB087
:103A480002AFF860B9603B601346FB7107F12C03C5
:103A58007B61FEF709F8B968FB79BA6A01920093AD
:103A68001A4B1B4AF86803F009F80123FB6117E0B9
:103A78007B691A1D7A611B68BB61F868FCF7DAFB81
:103A880003461A46FB68134412491A460B461B881C
:103A98001380B969F86803F049F8FB690133FB61E1
:103AA800FA693B689A42E3DBF868FCF7C3FB034614
:103AB8001A46FB681344084A10681860918892797E
:103AC80099809A7100BF2037BD4680BD0C07002041
:103AD80004BC000810BC000818BC000880B584B0FD
:103AE80000AF0346B9607A60FB73BB68D3F8083A45
:103AF800184602F0EDFE03461F3B442B00F2DE8021
:103B080001A252F823F000BF253C0008C53C00087C
:103B18002D3C0008493C0008C53C0008C53C00088D
:103B2800C53C0008C53C0008C53C0008A93C000885
:103B3800C53C0008C53C0008C53C0008C53C000859
:103B4800C53C0008C53C0008C53C0008C53C000849
:103B5800C53C0008C53C0008C53C0008C53C000839
:103B6800C53C0008C53C0008C53C0008C53C000829
:103B7800C53C0008C53C0008C53C0008A33C00083B
:103B8800C53C0008C53C0008C53C0008C53C000809
:103B9800C53C0008C53C0008C53C0008C53C0008F9
:103BA800C53C0008C53C0008613C0008C53C00084D
:103BB800C53C0008C53C0008C53C0008C53C0008D9
:103BC800BD3C0008C53C0008C53C0008C53C0008D1
:103BD800C53C0008C53C0008C53C0008C53C0008B9
:103BE800C53C0008C53C0008C53C0008C53C0008A9
:103BF800C53C0008C53C00083F3C0008953C00084F
:103C0800C53C0008573C0008C53C0008C53C0008F6
:103C1800C53C0008C53C0008B73C0008B86800F07F
:103C280087FA4EE0BB68002283F8112ABB6800229D
:103C380083F8102A45E0BB68002283F8112A40E087
:103C4800FB7B7A68B968184600F042F839E01F4BE8
:103C5800002283F8112A34E0BB6803F604031846EF
:103C680002F036FE0346012B03D10220FDF7D8FDF2
:103C780026E0BB6803F60403184602F029FE034653
:103C8800022B1DD10320FDF7CBFD19E0FB7B5D2244
:103C98007968184600F09CF913E000F0DFF910E0AD
:103CA800FB7B7A68B968184600F09CF809E0FEF7D3
:103CB80011FD06E0B86800F02DF902E000BF00E051
:103CC80000BF00BF1037BD4680BD00BFCC1200202A
:103CD80090B589B002AF0346B9607A60FB7364207F
:103CE80001F03AFF7861BB6803F6040337491846C8
:103CF80002F098FF3861386902F0EAFD02467B68F5
:103D08005A633249002002F08DFF3861386902F0A9
:103D1800DFFD0346DAB27B6883F84C202C4B1B7816
:103D2800DBB21A467B685B6B9A4248D07B685B6B58
:103D3800DAB2274B1A707B685B6BDBB20133DAB2FD
:103D48007B6893F84C3019461046FEF775FB7B6884
:103D58005C6B7B685B6BD8B27B685A6B1346DB0085
:103D680013445B0010331B4A134405331946FEF70E
:103D7800A3FE03461A467B68234483F84D207B68DC
:103D88005A6B1346DB0013445B001033114A13448B
:103D9800053300930123232264217869FFF74EFE3F
:103DA800FB7B012B04D179690B48FFF72FFD03E05A
:103DB80079690A48FFF72AFD094B01221A707869C8
:103DC80001F0B4FE00BF1C37BD4690BD10BC000812
:103DD80004000020CC07002000440040004C0040B4
:103DE800F606002090B589B002AF0346B9607A6044
:103DF800FB73642001F0B0FE7861BB6803F604032E
:103E08003E49184602F00EFF3861386902F060FD3D
:103E180002467B685A633949002002F003FF386183
:103E28007B6838333969184602F09DFE3349002013
:103E380002F0F8FE3861386902F04AFD0346DAB24A
:103E48007B6883F84C202E4B1B78DBB21A467B68C4
:103E58005B6B9A424BD07B685B6BDAB2284B1A706B
:103E68007B685B6BDBB20133DAB27B6893F84C306A
:103E780019461046FEF7E0FA7B685C6B7B685B6B63
:103E8800D8B27B685A6B1346DB0013445B001033CF
:103E98001C4A134405331946FEF70EFE03461A461C
:103EA8007B68234483F84D207B685A6B1346DB00FC
:103EB80013445B001033134A134405337A683832CD
:103EC800019200930223292264217869FFF7B6FD45
:103ED800FB7B012B04D179690B48FFF797FC03E0C2
:103EE80079690A48FFF792FC094B01221A70786930
:103EF80001F01CFE00BF1C37BD4690BD10BC000879
:103F080004000020CC07002000440040004C004082
:103F1800F606002080B584B000AF78607B6803F6B1
:103F280004030F49184602F07DFEF860F86802F0B5
:103F3800CFFC0346FB720A49002002F073FEF860CA
:103F4800F86802F0C5FC0346BB72BA7AFB7A1146E0
:103F58001846FDF7BBFD00BF1037BD4680BD00BF4A
:103F680010BC000880B582B000AF786014E0174B31
:103F78001B681B789BB21946786801F019FC00BFD2
:103F88008021786801F034FC0346002BF8D00F4BF1
:103F98001B6801330D4A13600C4B1B681B787D2B83
:103FA800E5D10A4B1B681B789BB21946786801F06B
:103FB800FFFB00BF8021786801F01AFC0346002B44
:103FC800F8D000BF0837BD4680BD00BF08000020FC
:103FD80080B58CB008AF03463960FB711346BB71DE
:103FE800C82001F0B9FDF8603B6893F83110BA7940
:103FF800124B0693124B0593124B0493124B0393E7
:10400800124B0293124B0193062300930B46C821CF
:10401800F868FFF7A1FCFB79012B04D1F9680D487A
:10402800FFF7F4FB03E0F9680B48FFF7EFFBF868CC
:1040380001F07CFD00BF1037BD4680BD3B08002065
:10404800290800201708002005080020F307002091
:10405800E107002000440040004C004080B582B0D9
:1040680000AF142001F078FD78603D2214217868B3
:10407800FFF756FC786801F059FDFFF7B3FB00BF66
:104088000837BD4680BD000080B586B002AF034644
:104098003960FB711E2001F05FFDF860FA79134664
:1040A800DB0013445B0010330B4A134405330B4AFF
:1040B80001920093022325221E21F868FFF7BEFC17
:1040C800F9683868FFF7A2FBF86801F02FFD00BF18
:1040D8001037BD4680BD00BFCC07002020BC0008BB
:1040E80080B588B004AF7860642001F035FDF860D1
:1040F800FDF7CAFC0B4B02930B4B01933223009341
:104108000A4B1E226421F868FFF7D8FBF968786823
:10411800FFF77CFBF86801F009FD00BF1037BD46CA
:1041280080BD00BF28BC00081807002050080020E8
:1041380080B584B000AF78607B6803F60403FB6049
:104148007B6803F604031649184602F06BFDF86015
:10415800F86802F0BDFB0346DAB2124B83F831204F
:104168000F49002002F05EFDF860F86802F0B0FB2D
:104178000346DAB20B4B83F832200A4B93F83130FE
:104188001946084B93F832301A46074802F0F6FBF6
:104198007B68012283F80F2A00BF1037BD4680BD17
:1041A8002CBC0008E81C002030BC000880B586B094
:1041B80000AF7860396000237B6100233B610023F6
:1041C800FB737868FCF736F80346BB60ABE07B69A5
:1041D8007A6813441B789B08FB733B695A1C3A6145
:1041E8001A463B681344574A1168FA7B0A44127806
:1041F8001A707B697A6813441B781B01DBB203F0E1
:104208003003FB737B695A1CBB689A4228DA7B69C6
:1042180001337A6813441B781B09DBB25AB297F949
:104228000F3013435BB2FB733B695A1C3A611A4661
:104238003B681344434A1168FA7B0A4412781A709F
:104248007B6901337A6813441B789B00DBB203F067
:104258003C03FB737B699A1CBB689A424BDA1CE0EF
:104268003B695A1C3A611A463B681344354A11683F
:10427800FA7B0A4412781A703B695A1C3A611A464A
:104288003B6813443D221A703B695A1C3A611A462E
:104298003B6813443D221A704AE07B6902337A680E
:1042A80013441B789B09DBB25AB297F90F301343BA
:1042B8005BB2FB733B695A1C3A611A463B6813446C
:1042C800204A1168FA7B0A4412781A707B69023313
:1042D8007A6813441B7803F03F03FB733B695A1C4D
:1042E8003A611A463B681344164A1168FA7B0A4435
:1042F80012781A7014E03B695A1C3A611A463B68F6
:104308001344104A1168FA7B0A4412781A703B6900
:104318005A1C3A611A463B6813443D221A7007E05A
:104328007B6903337B617A69BB689A42FFF64FAFBA
:104338003B693A68134400221A700023184618375C
:10434800BD4680BD0C00002080B584B000AF786009
:104358000B46FB70FB781946786802F0F6FBF860AC
:10436800FB68002B02D14FF0FF3302E0FA687B684C
:10437800D31A18461037BD4680BD000080B588B0F6
:1043880000AF786039600023FB610023BB6107F14F
:10439800080300221A605A609A60DA607BE0464B94
:1043A8001868FB697A6813441B781946FFF7CCFF35
:1043B8000346BB60404B1868FB6901337A681344B5
:1043C8001B781946FFF7C0FF0346FB60BB695A1C00
:1043D800BA611A463B681344BA68920051B2FA6847
:1043E800121152B202F0030252B20A4352B2D2B2CE
:1043F8001A70FB6902337A6813441B783D2B44D04A
:104408002D4B1868FB6902337A6813441B781946E8
:10441800FFF79AFF03463B61BB695A1CBA611A460B
:104428003B681344FA68120151B23A69921052B2C9
:1044380002F00F0252B20A4352B2D2B21A70FB69AA
:1044480003337A6813441B783D2B20D01A4B186825
:10445800FB6903337A6813441B781946FFF774FF26
:1044680003467B61BB695A1CBA611A463B68134410
:104478003A69920151B27A6952B202F03F0252B2DD
:104488000A4352B2D2B21A7002E000BF00E000BF85
:10449800FB690433FB61FB697A6813441B78002BC2
:1044A8007FF47DAFBB693A68134400221A70002379
:1044B80018462037BD4680BD0C00002080B584B06A
:1044C80000AF40F225514E4801F0BDF90346002BDC
:1044D80036D040F225514A4801F00FFA484801F019
:1044E80078F90346FB72474BB3F8183AC3F30E0347
:1044F8009BB21A4640F2FE339A4214DC414BB3F8A1
:10450800183AC3F30E0399B24B1CC3F30E0398B2C7
:104518003C4AB2F8183A60F30E03A2F8183A394A3E
:10452800FB7A53540CE0384802F0A0FA4FF480624A
:104538000021344802F019FA324B0022A3F8182A55
:1045480040F224412E4801F07EF90346002B45D065
:104558002B4B1B882A4B9B882C492A4802F046FB88
:104568000346002B06D02A4802F080FA254B012288
:1045780083F80C2A2749234802F038FBF860002307
:104588007B60FB68002B29D002E0FB680133FB60ED
:10459800FB681B782C2BF8D1FB680133FB60F868AB
:1045A80002F096F9786002E0FB680133FB60FB6873
:1045B8001B783A2BF8D1FB680133FB607B681A46FD
:1045C800F968154802F0C6F90E4A92F8193A43F00C
:1045D800800382F8193A114B00221A8008210848F2
:1045E80001F031F90346002B06D00821044801F0F8
:1045F8001AF9034801F0EDF800BF1037BD4680BD39
:10460800004C0040B008002084BC00089CBC000896
:10461800A4BC0008B8BC0008B00C0020402700204B
:1046280080B483B000AF7860054A7B6843F0BF630D
:1046380043F40033D36000BF0C37BD4680BC7047DD
:1046480000ED00E080B487B000AF786000237B61A4
:1046580000233B610F23FB607B68DB78002B3AD09B
:10466800274BDB68DB431B0A03F007037B617B698D
:10467800C3F104033B61FA687B6922FA03F3FB6028
:104688007B685B781A463B6902FA03F37B617B68B7
:104698009B781A46FB6813407A6913437B617B69F0
:1046A8001B017B61174A7B681B787969C9B213447F
:1046B8000A4683F80023134A7B681B785B09DBB240
:1046C80018467B681B7803F01F03012101FA03F3E6
:1046D80042F820300FE00B497B681B785B09DBB29E
:1046E80018467B681B7803F01F0301229A4000F1EB
:1046F800200341F8232000BF1C37BD4680BC70470B
:1047080000ED00E000E100E080B483B000AF786025
:104718007B68042B06D1094A084B1B6843F0040345
:10472800136005E0054A054B1B6823F0040313607A
:1047380000BF0C37BD4680BC704700BF10E000E0EA
:1047480080B485B000AF78600023FB60094B1B681C
:10475800FB60FB6803F03803FB60FA687B6813436F
:10476800FB60044AFB68136000BF1437BD4680BC79
:10477800704700BF0020024080B483B000AF78606B
:10478800084A084B1B6823F0100313600549054BC2
:104798001A687B6813430B6000BF0C37BD4680BCAA
:1047A800704700BF0020024080B400AF044B054AA8
:1047B8005A60034B044A5A6000BFBD4680BC70472C
:1047C8000020024023016745AB89EFCD80B400AFDC
:1047D800044A044B1B6943F08003136100BFBD46C4
:1047E80080BC70470020024080B584B000AF78607C
:1047F8000423FB734FF4302000F080F80346FB736A
:10480800FB7B042B1BD1104A0F4B1B6943F002039F
:1048180013610D4A7B6853610B4A0B4B1B6943F0CC
:10482800400313614FF4302000F068F80346FB732F
:104838000549054B1A6941F6FD7313400B61FB7B73
:1048480018461037BD4680BD0020024080B584B0B0
:1048580000AF78600B467B800423FB734FF4005055
:1048680000F04CF80346FB73FB7B042B15D10D4A73
:104878000C4B1B6943F0010313617B687A881A802B
:104888004FF4005000F03AF80346FB730549054B16
:104898001A6941F6FE7313400B61FB7B184610370B
:1048A800BD4680BD0020024080B483B000AF042321
:1048B800FB71114BDB6803F00103012B02D10123CB
:1048C800FB7113E00C4BDB6803F00403002B02D0F0
:1048D8000223FB710AE0084BDB6803F01003002B8E
:1048E80002D00323FB7101E00423FB71FB79184616
:1048F8000C37BD4680BC70470020024080B584B0AC
:1049080000AF78600423FB73FFF7CEFF0346FB7309
:1049180006E0FFF7C9FF0346FB737B68013B7B603A
:10492800FB7B012B02D17B68002BF2D17B68002B2B
:1049380001D10523FB73FB7B18461037BD4680BDAC
:1049480080B489B000AF786039600023FB61002330
:104958003B610023BB610023FB6000237B610023D4
:10496800BB603B68DB7803F00F03FB613B68DB78D7
:1049780003F01003002B05D03B689B781A46FB69AF
:104988001343FB613B681B88DBB2002B44D07B6878
:104998001B687B610023BB6138E00122BB6902FA16
:1049A80003F3FB603B681B881A46FB6813403B61B6
:1049B8003A69FB689A4226D1BB699B00FB600F22CB
:1049C800FB6802FA03F3BB60BB68DB437A691340F8
:1049D8007B61FA69FB6802FA03F37A6913437B6126
:1049E8003B68DB78282B05D10122BB699A407B689C
:1049F8005A6108E03B68DB78482B04D10122BB6987
:104A08009A407B681A61BB690133BB61BB69072B9C
:104A1800C3D97B687A691A603B681B88FF2B46D923
:104A28007B685B687B610023BB613AE0BB69083344
:104A3800012202FA03F3FB603B681B881A46FB68F5
:104A480013403B613A69FB689A4227D1BB699B00D6
:104A5800FB600F22FB6802FA03F3BB60BB68DB4311
:104A68007A6913407B61FA69FB6802FA03F37A6991
:104A780013437B613B68DB78282B05D1BB6908337E
:104A880001229A407B685A613B68DB78482B05D144
:104A9800BB69083301229A407B681A61BB690133FC
:104AA800BB61BB69072BC1D97B687A695A6000BFB3
:104AB8002437BD4680BC704780B485B000AF7860AD
:104AC8000B467B800023FB737B689A687B881340C6
:104AD800002B02D00123FB7301E00023FB73FB7B57
:104AE80018461437BD4680BC704780B483B000AF09
:104AF80078600B467B807A887B681A6100BF0C3728
:104B0800BD4680BC704780B483B000AF78600B4668
:104B18007B807A887B685A6100BF0C37BD4680BCB1
:104B28007047000080B487B000AF78600B46FB7018
:104B380000233B610023FB6000237B610023BB60F3
:104B48007B68002B03DA2E4BDB697B6102E02C4B80
:104B58005B687B617B681B0C03F00F03BB607B68A1
:104B68009BB23B617B6803F44013B3F5401F0AD145
:104B78007B6923F070637B61214A214B5B6823F0DA
:104B88007063536021E07B6803F48013002B0ED020
:104B98000322BB6802FA03F3FB60FB68DB437A6914
:104BA80013407B617B6943F070637B610DE07B6838
:104BB8005B0D1B013A6902FA03F3DB437A69134080
:104BC8007B617B6943F070637B61FB78002B08D0C5
:104BD8007B685B0D1B013A6902FA03F37A69134398
:104BE8007B617B68002B03DA054A7B69D36102E0AD
:104BF800034A7B69536000BF1C37BD4680BC7047C1
:104C08000000014080B400AF134A134B1B6843F007
:104C1800010313601049104B5A68104B13404B6046
:104C28000D4A0D4B1B6823F0847323F48033136003
:104C3800094A094B1B6823F480231360064A064B74
:104C48005B6823F4FE035360034B4FF41F029A6022
:104C580000BFBD4680BC7047001002400000FFF84E
:104C680080B483B000AF0346FB71044AFB7913603C
:104C780000BF0C37BD4680BC704700BF00004242F1
:104C880080B485B000AF786039600023FB600A4BC0
:104C98005B68FB60FB6823F47C13FB607A683B6805
:104CA8001343FA681343FB60034AFB68536000BF71
:104CB8001437BD4680BC70470010024080B483B0F2
:104CC80000AF0346FB71044AFB79136000BF0C3741
:104CD800BD4680BC704700BF6000424280B485B0CA
:104CE80000AF78600023FB60094B5B68FB60FB68E2
:104CF80023F00303FB60FA687B681343FB60044AF4
:104D0800FB68536000BF1437BD4680BC704700BFC6
:104D18000010024080B400AF044B5B68DBB203F0C4
:104D28000C03DBB21846BD4680BC70470010024039
:104D380080B485B000AF78600023FB60094B5B68E6
:104D4800FB60FB6823F0F003FB60FA687B681343A1
:104D5800FB60044AFB68536000BF1437BD4680BC43
:104D6800704700BF0010024080B485B000AF786083
:104D78000023FB60094B5B68FB60FB6823F4E0637E
:104D8800FB60FA687B681343FB60044AFB68536066
:104D980000BF1437BD4680BC704700BF00100240FA
:104DA80080B485B000AF78600023FB60094B5B6876
:104DB800FB60FB6823F46053FB607B68DB00FA68E8
:104DC8001343FB60034AFB68536000BF1437BD46BA
:104DD80080BC70470010024080B487B000AF786094
:104DE80000237B6100233B610023FB600023BB6041
:104DF8004C4B5B6803F00C037B617B69042B07D089
:104E0800082B09D0002B33D17B68474A1A6033E05E
:104E18007B68454A1A602FE0424B5B6803F47013C5
:104E28003B61404B5B6803F48033FB603B699B0C40
:104E380002333B61FB68002B06D13B693B4A02FB0E
:104E480003F27B681A6017E0364B5B6803F40033A3
:104E5800002B06D03B69354A02FB03F27B681A60D7
:104E68000AE03B69304A02FB03F27B681A6003E000
:104E78007B682D4A1A6000BF2A4B5B6803F0F00379
:104E88007B617B691B097B61294A7B6913441B7819
:104E9800DBB2BB607B681A68BB68DA407B685A6023
:104EA800204B5B6803F4E0637B617B691B0A7B61D1
:104EB8001F4A7B6913441B78DBB2BB607B685A6866
:104EC800BB68DA407B689A60164B5B6803F46053F2
:104ED8007B617B69DB0A7B61154A7B6913441B781C
:104EE800DBB2BB607B685A68BB68DA407B68DA6013
:104EF8000C4B5B6803F440437B617B699B0B7B61D4
:104F08000C4A7B6913441B78DBB2BB607B68DA68A8
:104F1800BB68B2FBF3F27B681A6100BF1C37BD4661
:104F280080BC70470010024000127A0000093D0062
:104F3800100000202000002080B483B000AF78600B
:104F48000B46FB70FB78002B06D00949084B9A6981
:104F58007B6813438B6106E00549054B9A697B68BA
:104F6800DB4313408B6100BF0C37BD4680BC7047E4
:104F78000010024080B483B000AF78600B46FB702D
:104F8800FB78002B06D00949084BDA697B68134384
:104F9800CB6106E00549054BDA697B68DB431340C2
:104FA800CB6100BF0C37BD4680BC70470010024083
:104FB80080B483B000AF78600B46FB70FB78002BA1
:104FC80006D00949084BDA687B681343CB6006E0D2
:104FD8000549054BDA687B68DB431340CB6000BFAB
:104FE8000C37BD4680BC70470010024080B483B0C7
:104FF80000AF78600B46FB70FB78002B06D00949A0
:10500800084B1A697B6813430B6106E00549054B99
:105018001A697B68DB4313400B6100BF0C37BD4640
:1050280080BC70470010024080B487B000AF0346D0
:10503800FB710023FB6000237B610023FB74FB7979
:105048005B09DBB2FB60FB68012B03D1124B1B68C9
:105058007B6109E0FB68022B03D10F4B1B6A7B6164
:1050680002E00D4B5B6A7B61FB7903F01F03FB6079
:105078007A69FB6822FA03F303F00103002B02D0DC
:105088000123FB7401E00023FB74FB7C18461C37EA
:10509800BD4680BC704700BF0010024080B582B09A
:1050A80000AF78607B68784A93420AD101214FF4B7
:1050B8000060FFF77DFF00214FF40060FFF778FFE5
:1050C800DEE07B68B3F1804F08D101210120FFF7B2
:1050D8008DFF00210120FFF789FFD1E07B686B4A33
:1050E800934208D101210220FFF780FF002102200E
:1050F800FFF77CFFC4E07B68654A934208D1012131
:105108000420FFF773FF00210420FFF76FFFB7E0CB
:105118007B68604A934208D101210820FFF766FFA7
:1051280000210820FFF762FFAAE07B685A4A9342F1
:1051380008D101211020FFF759FF00211020FFF7A7
:1051480055FF9DE07B68554A934208D101212020F4
:10515800FFF74CFF00212020FFF748FF90E07B6815
:105168004F4A93420AD101214FF40050FFF720FF24
:1051780000214FF40050FFF71BFF81E07B68494A8C
:1051880093420AD101214FF40020FFF711FF0021BB
:105198004FF40020FFF70CFF72E07B68424A93420D
:1051A8000AD101214FF48010FFF702FF00214FF4CC
:1051B8008010FFF7FDFE63E07B683C4A93420AD10A
:1051C80001214FF40010FFF7F3FE00214FF4001007
:1051D800FFF7EEFE54E07B68354A934208D101217F
:1051E8004020FFF703FF00214020FFF7FFFE47E0C4
:1051F8007B68304A934208D101218020FFF7F6FEF0
:1052080000218020FFF7F2FE3AE07B682A4A9342A9
:105218000AD101214FF48070FFF7E8FE00214FF416
:105228008070FFF7E3FE2BE07B68244A93420AD1A3
:1052380001214FF48030FFF7BBFE00214FF480308E
:10524800FFF7B6FE1CE07B681D4A93420AD1012194
:105258004FF40030FFF7ACFE00214FF40030FFF7A9
:10526800A7FE0DE07B68174A934209D101214FF44C
:105278008020FFF79DFE00214FF48020FFF798FE65
:1052880000BF0837BD4680BD002C01400004004027
:1052980000080040000C00400010004000140040CE
:1052A80000340140004C01400050014000540140CE
:1052B80000180040001C0040002000400040014051
:1052C800004401400048014080B485B000AF7860D8
:1052D80039600023FB817B681B88FB817B682E4A31
:1052E800934213D07B682D4A93420FD07B68B3F169
:1052F800804F0BD07B682A4A934207D07B68294AA3
:10530800934203D07B68284A934208D1FB8923F053
:105318007003FB813B685A88FB891343FB817B68D8
:10532800224A93420CD07B68214A934208D0FB89D9
:1053380023F44073FB813B68DA88FB891343FB81C4
:105348007B68FA891A803B689A887B689A853B68EB
:105358001A887B681A857B680F4A93420FD07B684E
:105368000E4A93420BD07B68124A934207D07B685F
:10537800114A934203D07B68104A934204D13B6898
:105388001B7A9AB27B681A867B6801229A8200BFD0
:105398001437BD4680BC7047002C014000340140E2
:1053A8000004004000080040000C004000100040CD
:1053B8000014004000400140004401400048014002
:1053C80080B483B000AF78600B46FB70FB78002B8D
:1053D80008D07B681B889BB243F001039AB27B68B4
:1053E8001A8007E07B681B889BB223F001039AB2FE
:1053F8007B681A8000BF0C37BD4680BC704780B4FC
:1054080083B000AF78600B467B8013467B707B7857
:10541800002B08D07B689B899AB27B8813439AB289
:105428007B689A8109E07B689B899AB27B88DB4319
:105438009BB213409AB27B689A8100BF0C37BD4675
:1054480080BC704780B485B000AF78600B467B8025
:105458000023FB730023BB8100237B817B681B8AAD
:105468009AB27B881340BB817B689B899AB27B8800
:1054780013407B81BB89002B05D07B89002B02D090
:105488000123FB7301E00023FB73FB7B18461437F1
:10549800BD4680BC704780B483B000AF78600B46CF
:1054A8007B807B88DB439AB27B681A8200BF0C370B
:1054B800BD4680BC7047000080B582B000AF786000
:1054C8007B68264A93420AD101214FF48040FFF7B6
:1054D8006FFD00214FF48040FFF76AFD3AE07B68DA
:1054E8001F4A93420AD101214FF40030FFF77EFD95
:1054F80000214FF40030FFF779FD2BE07B68194A53
:1055080093420AD101214FF48020FFF76FFD00215B
:105518004FF48020FFF76AFD1CE07B68124A934233
:105528000AD101214FF40020FFF760FD00214FF45C
:105538000020FFF75BFD0DE07B680C4A934209D120
:1055480001214FF48010FFF751FD00214FF4801026
:10555800FFF74CFD00BF0837BD4680BD003801404D
:105568000044004000480040004C0040005000400B
:1055780080B58CB000AF786039600023FB620023EF
:10558800BB6200237B6200233B620023FB617B68D4
:10559800FB617B681B8A9BB2FB62FA6A4CF6FF735D
:1055A8001340FB623B68DB881A46FB6A1343FB62C5
:1055B800FB6A9AB27B681A827B689B899BB2FB6202
:1055C800FA6A4EF6F3131340FB623B689A883B680D
:1055D8001B8913439AB23B685B8913439BB21A46F3
:1055E800FB6A1343FB62FB6A9AB27B689A817B6809
:1055F8009B8A9BB2FB62FA6A4FF6FF431340FB6239
:105608003B689B891A46FB6A1343FB62FB6A9AB2A2
:105618007B689A8207F108031846FFF7DDFBFB69F0
:105628002E4A934202D17B69BB6201E03B69BB62AF
:105638007B689B899BB21BB2002B0CDABA6A1346B3
:105648009B0013449A001A443B681B685B00B2FB3A
:10565800F3F37B620BE0BA6A13469B0013449A008B
:105668001A443B681B689B00B2FBF3F37B627B6ABE
:105678001B4AA2FB03235B091B01FB62FB6A1B0994
:10568800642202FB03F37A6AD31A3B627B689B8924
:105698009BB21BB2002B0CDA3B6ADB003233104A98
:1056A800A2FB03235B0903F00703FA6A1343FB62B7
:1056B8000BE03B6A1B013233094AA2FB03235B0957
:1056C80003F00F03FA6A1343FB62FB6A9AB27B6822
:1056D8001A8100BF3037BD4680BD00BF0038014089
:1056E8001F85EB5180B483B000AF78600B46FB7028
:1056F800FB78002B08D07B689B899BB243F400534E
:105708009AB27B689A8107E07B689B899BB223F4F5
:1057180000539AB27B689A8100BF0C37BD4680BCA3
:10572800704780B487B000AF78600B467B80134623
:105738007B7000233B610023FB600023BB600023D8
:105748007B617B687B617B88DBB25B09DBB23B6199
:105758007B8803F01F03FB600122FB6802FA03F356
:10576800BB603B69012B03D17B690C337B6109E08A
:105778003B69022B03D17B6910337B6102E07B69B3
:1057880014337B617B78002B06D07B697A691168BA
:10579800BA680A431A6006E07B697A691168BA68D0
:1057A800D2430A401A6000BF1C37BD4680BC704710
:1057B80080B483B000AF78600B467B807B88C3F3EE
:1057C80008039AB27B689A8000BF0C37BD4680BC3C
:1057D800704780B483B000AF78607B689B889BB2C9
:1057E800C3F308039BB218460C37BD4680BC70470C
:1057F80080B485B000AF78600B467B800023FB73D4
:105808007B681B889AB27B8813409BB2002B02D01E
:105818000123FB7301E00023FB73FB7B184614375D
:10582800BD4680BC704780B483B000AF78600B463B
:105838007B807B88DB439AB27B681A8000BF0C3779
:10584800BD4680BC704780B487B000AF78600B4617
:105858007B800023FB6000237B610023BB60002367
:10586800FB747B88DBB25B09DBB2BB607B8803F02F
:105878001F037B6101227B6902FA03F37B61BB682A
:10588800012B07D17B689B899BB21A467B69134021
:105898007B6111E0BB68022B07D17B681B8A9BB236
:1058A8001A467B6913407B6106E07B689B8A9BB242
:1058B8001A467B6913407B617B881B0A9BB2FB609D
:1058C8000122FB6802FA03F3FB607B681B889BB22A
:1058D8001A46FB681340FB607B69002B05D0FB6808
:1058E800002B02D00123FB7401E00023FB74FB7C36
:1058F80018461C37BD4680BC704780B485B000AFE1
:1059080078600B467B800023FB810023BB817B886A
:105918001B0AFB81FB89012202FA03F3BB81BB89C5
:10592800DB439AB27B681A8000BF1437BD4680BC3F
:10593800704780B487B000AFF8600B467A60FB729E
:10594800FB687B6104E07B695A1C7A61FA7A1A70F9
:105958007B685A1E7A60002BF5D100BF1C37BD4604
:1059680080BC704780B500AF0A4BD8684FF480639D
:105978005B001A460021FFF7DCFF064B9B684FF4DB
:10598800004200211846FFF7D4FF024B01221A7487
:1059980000BF80BD2400002080B483B000AF002386
:1059A8007B6000233B600DE0104BDA683B685B00CE
:1059B80013441B88002B02D07B6801337B603B6853
:1059C80001333B604FF480623B689342ECD37B68C1
:1059D800642202FB03F34FF48062B3FBF2F3DBB201
:1059E80018460C37BD4680BC704700BF2400002015
:1059F80080B586B000AF786000237B610023FB6030
:105A08002C4B1B7C002B02D12A4B1B6898477B68C8
:105A1800002B02D14FF0FF3348E020227B68B3FB14
:105A2800F2F33B6120227B68B3FBF2F102FB01F247
:105A38009B1A002B02D03B6901333B614FF4806312
:105A4800013B7B612DE01B4BDA687B695B001344EB
:105A58001B88002B03D1FB680133FB6001E00023A6
:105A6800FB60FA683B699A4218D10023BB600CE0DE
:105A7800104BDA687969BB680B445B0013443A69D8
:105A880092B21A80BB680133BB60BA683B699A421C
:105A9800EED37B69202202FB03F307E07B69013B1D
:105AA8007B617B69002BCEDA4FF0FF33184618373D
:105AB800BD4680BD2400002080B586B000AF786068
:105AC800194B1B7C002B04D1174B1B6898470123EB
